S00B00005450322E7372656343
S11300000C9454000C9471000C9471000C947100C5
S11300100C9471000C9471000C9471000C94710098
S11300200C9471000C9471000C9471000C943C04B9
S11300300C9471000C9471000C9471000C94710078
S11300400C9471000C9471000C9471000C94710068
S11300500C9471000C9471000C9471000C94710058
S11300600C9471000C947100001F000000001F002C
S1130070001F101010101F00001F181818181F0060
S1130080001F1C1C1C1C1F00001F1E1E1E1E1F0008
S1130090001F1F1F1F1F1F0003070F1F0F07030051
S11300A0181C1E1F1E1C180011241FBECFEFD8E001
S11300B0DEBFCDBF11E0A0E0B1E0EAECFEE002C09B
S11300C005900D92A83BB107D9F721E0A8EBB1E068
S11300D001C01D92A93CB207E1F70E94E4060C940A
S11300E063070C9400000F931F93CF93DF93082FA3
S11300F0162F60E080E00E947303CDEC0C9FD12D9D
S11301001124D695D695D69580E38D0F0E942B02A7
S1130110DD0F8D2F880F880FD80F802F8D1B805DEA
S11301200E942B028AE30E942B021C9FC12D1124E2
S1130130C695C695C69580E38C0F0E942B02CC0F02
S11301408C2F880F880FC80F812F8C1B805D0E9415
S11301502B02DF91CF911F910F9108950E945703B5
S113016060E080E00E94730365E081E091E00E941A
S11301705B0361E080E00E94730360E187E091E04B
S11301800E945B0308950E94570360E080E00E9490
S1130190730365E081E091E00E945B0361E080E02D
S11301A00E94730368E088E191E00E945B03089574
S11301B0CF93DF93C82FD62F60E080E00E947303B3
S11301C06D2F8C2F0E94730061E080E00E94730306
S11301D060E18FE191E00E945B03DF91CF9108958C
S11301E0CF93DF93C82FD62F60E080E00E94730383
S11301F06D2F8C2F0E94730061E080E00E947303D6
S113020060E180E391E00E945B03DF91CF91089568
S1130210CF93DF93C82FD62F60E080E00E94730352
S11302206D2F8C2F0E94730061E080E00E947303A5
S113023060E181E491E00E945B03DF91CF91089536
S1130240CF93DF93C82FD62F60E080E00E94730322
S11302506D2F8C2F0E94730061E080E00E94730375
S113026060E182E591E00E945B03DF91CF91089504
S11302700E94570360E080E00E94730360E183E61C
S113028091E090E00E945B0361E080E00E947303D0
S113029060E184E791E090E00E945B0308950E948E
S11302A0570360E080E00E94730360E185E891E019
S11302B090E00E945B0361E080E00E94730360E1D0
S11302C086E991E090E00E945B03089595B1906106
S11302D095B995B1986095B995B1916095B99BB16F
S11302E090689BB9813051F028F0823059F0833006
S11302F069F0089585B18F7E85B9089585B1877FAA
S113030085B9089585B18E7F85B908958BB18F77AE
S11303108BB90895813071F028F0823099F08330E0
S1130320C1F01EC089B186958695869591E089278E
S11303308170089589B182958695877091E08927A7
S11303408170089589B182958F7091E089278170B9
S1130350089589B18695869591E0892781700895DD
S113036080E00895CF93DF93D0E01EC08D2F0E94CC
S1130370660183E08A95F1F70000C0E012C08C2F7B
S11303800E948A01882361F0ED2FF0E0EE0FFF1F39
S1130390EE0FFF1FE955FE4FEC0FF11D808107C0E2
S11303A0CF5FC43060F3DF5FD43000F38FEFDF91B1
S11303B0CF91089584B1806184B985B1806185B994
S11303C084B1886084B985B1886085B984B181605D
S11303D084B985B1816085B98AB180688AB98BB1E5
S11303E080688BB98AB1877F8AB98BB188608BB9F1
S11303F08AB18F7D8AB98BB180628BB98AB18F7EC5
S11304008AB98BB180618BB98AB18B7F8AB98BB180
S113041084608BB90895CF93DF93EC010E94B201FD
S11304208F3F31F48093B8018093000180E010C0C5
S11304309091B801891309C090910001891729F09E
S113044088838093000181E003C08093B80180E039
S1130450DF91CF91089565B1982F9074492F50E0A2
S11304605595479555954795559547955595479570
S1130470982F9078292F30E0022E232F000C221F72
S1130480330B000C221F331F962F997F492B242BEB
S113049025B968B1982F9071492F50E0559547952B
S11304A05595479555954795982F9072292F30E08B
S11304B0359527953595279535952795962F997FC9
S11304C0492B242B28B99BB192609BB99BB19160B5
S11304D09BB92AE62A95F1F700C09BB19E7F9BB990
S11304E09BB19D7F9BB99AE69A95F1F700C065B1DF
S11304F020E1829FC0011124AC0140745527559519
S113050047955595479555954795559547959C011C
S113051020783327022E232F000C221F330B000CCC
S1130520221F331F362F397F432B242B25B948B183
S11305309C01207133273595279535952795359559
S11305402795807299279595879595958795959583
S11305508795942F997F292B822B88B98BB1826040
S11305608BB98BB181608BB98AE68A95F1F700C0AB
S11305708BB18E7F8BB98BB18D7F8BB99AE69A95AF
S1130580F1F700C0089565B1982F9074492F50E099
S1130590559547955595479555954795559547953F
S11305A0982F9078292F30E0022E232F000C221F41
S11305B0330B000C221F331F962F997F492B242BBA
S11305C025B968B1982F9071492F50E055954795FA
S11305D05595479555954795982F9072292F30E05A
S11305E0359527953595279535952795962F997F98
S11305F0492B242B28B99BB191609BB9EFECF7E010
S11306003197F1F700C000009BB19E7F9BB9EFECDE
S1130610F7E03197F1F700C0000065B1F0E18F9F7A
S1130620C0011124AC014074552755954795559543
S1130630479555954795559547959C0120783327BF
S1130640022E232F000C221F330B000C221F331FFA
S1130650362F397F432B242B25B948B19C012071B7
S113066033273595279535952795359527958072A8
S11306709927959587959595879595958795942F21
S1130680997F292B822B88B98BB181608BB98FEC30
S113069097E00197F1F700C000008BB18E7F8BB912
S11306A0EFECF7E03197F1F700C00000089581E026
S11306B00E94C30208950F931F93CF93DF93009773
S11306C069F0D62F8C01C0E007C0F801EC0FF11DD2
S11306D080810E942B02CF5FCD17B8F3DF91CF91B9
S11306E01F910F910895623031F0633031F0613021
S11306F029F4805C03C08C5E01C08C5A80680E941F
S1130700C3020895EF92FF920F931F93CF93DF9349
S11307107C01862F90E0880F991F880F991F880FFE
S1130720991F8064C0E0D0E00DC0F701EC0FFD1FFD
S1130730149101E0080F0E94C302812F0E942B0232
S11307402196802FC830D10580F3DF91CF911F917E
S11307500F91FF90EF900895CF93DF938FE59AEE7A
S11307600197F1F700C0000085B1897F85B988B190
S1130770897F88B91BB884B1866084B987B18660E3
S113078087B98AB183608AB985B1897F85B988B10F
S1130790866088B98BB181608BB98FEC97E0019743
S11307A0F1F700C000008BB18E7F8BB98FEC97E01E
S11307B00197F1F700C0000085B1897F85B988B140
S11307C0866088B98BB181608BB98FEC97E0019713
S11307D0F1F700C000008BB18E7F8BB98FEC97E0EE
S11307E00197F1F700C0000085B1897F85B988B110
S11307F0897F846088B98BB181608BB98FEC97E075
S11308000197F1F700C000008BB18E7F8BB98FEC9C
S113081097E00197F1F700C0000088E20E94C3024C
S11308208CE00E94C30260E0C0E00AC0D1E0D60FB1
S11308308C2F90E088599F4F0E948203C85F6D2FD0
S1130840C034A0F3DF91CF91089588E00E94C302E1
S113085008958CE00E94C3020895109280008DE0F8
S11308608093810088E09DE39093890080938800C1
S113087082E080936F0008951F920F920FB60F923B
S113088011248F9381E08093C2018F910F900FBE4A
S11308900F901F90189585B18F7D85B988B18F7E93
S11308A088B988B18F7D88B9089584B1806284B98C
S11308B087B1806187B987B1806287B90E944B0490
S11308C00E94AC030E9457030E94DA01E9EBF1E0B5
S11308D01082128211821782108611861386128664
S11308E014861686158681E087870E942D047894E5
S11308F00895E9EBF1E012821182178216821582C3
S11309001482138208952091BA013091BB01280FFB
S1130910391F2037374138F08FE697E19093BB01B8
S11309208093BA010895E9EBF1E021813281820FCD
S1130930931F9283818308952091BA013091BB0162
S113094081E0232B09F480E00895E9EBF1E085814F
S11309509681880F282F220F220F820F890F8C3344
S113096048F48091BA019091BB018037974120F0FF
S113097080E0089580E0089581E00895E9EBF1E0D6
S113098083819481880F282F220F220F820F282F12
S1130990290F85819681880F382F330F330F830FEA
S11309A0890F90E03CE3239F800D911D11249283D5
S11309B0818308950E944B040E9479040E94AE0032
S11309C00895CF93DF930E944B04E9EBF1E021817A
S11309D03281A9E8B8E80E945407EC01D695C7957E
S11309E0D295C295CF70CD27DF70CD27418152813A
S11309F09A010E94540796958795929582958F70D7
S1130A0089279F7089276CE3689F9001699F300D47
S1130A101124CA01821B930B682F8C2F0E94D800CB
S1130A20DF91CF910895CF93DF9385B1806285B92B
S1130A3088B1806188B9E9EBF1E021813281A9E8CC
S1130A40B8E80E945407EC01D695C795D295C29593
S1130A50CF70CD27DF70CD27418152819A010E944A
S1130A60540796958795929582958F7089279F70E4
S1130A7089276CE3689F9001699F300D1124CA0196
S1130A80821B930B682F8C2F0E940801DF91CF915A
S1130A900895CF93DF9385B18F7D85B988B1806147
S1130AA088B9E9EBF1E021813281A9E8B8E80E9434
S1130AB05407EC01D695C795D295C295CF70CD2732
S1130AC0DF70CD27418152819A010E945407969587
S1130AD08795929582958F7089279F7089276CE3FB
S1130AE0689F9001699F300D1124CA01821B930BEA
S1130AF0682F8C2F0E942001DF91CF910895CF930E
S1130B00DF9385B18F7D85B988B1806188B9E9EBC0
S1130B10F1E021813281A9E8B8E80E945407EC0190
S1130B20D695C795D295C295CF70CD27DF70CD27C6
S1130B30418152819A010E94540796958795929516
S1130B4082958F7089279F7089276CE3689F900135
S1130B50699F300D1124CA01821B930B682F8C2FBF
S1130B600E94F000DF91CF9108950E944B041092EF
S1130B70C4011092C3010E94C30008958093B90177
S1130B80823091F028F4882349F0813051F008959F
S1130B90843081F060F0853081F008950E94DA0499
S1130BA008950E94E10408950E94130508950E9487
S1130BB0490508950E947F0508950E94B50508958A
S1130BC0CF939091B901923009F478C028F4992315
S1130BD061F0913069F1F6C0943009F4BEC008F4B4
S1130BE0A0C0953009F4C5C0EDC0C0EDC80FCA302F
S1130BF080F40E947904E9EBF1E0158214821382F7
S1130C00C68381E087830E94BE0481E00E94BE0502
S1130C10D9C0833409F0D6C00E9479048EE190E0F3
S1130C209093BB018093BA0182E00E94BE05CAC0C2
S1130C3090ED980F9A3098F4E9EBF1E08481838386
S1130C40858184838681858396838781843018F4A3
S1130C5087818F5F878381E08093C801B3C081342B
S1130C60D1F40E94BE040E949C04811106C00E941B
S1130C70380181E08093C801A5C00E94A5048111B8
S1130C8006C00E944F0181E08093C8019BC082E0AE
S1130C900E94BE0597C0823421F480E00E94BE0504
S1130CA091C0833409F08EC00E94BE048EE190E0AE
S1130CB00E94830482E00E94BE0584C0823421F431
S1130CC083E00E94BE050FC0833441F48EE190E0BE
S1130CD00E94830481E08093C80105C0843419F420
S1130CE084E00E94BE058091C201882309F46AC091
S1130CF0E9EBF1E0118681819281892B39F08181C0
S1130D00928101979283818381E087878091BA01E0
S1130D109091BB01892B09F055C085E00E94BE0566
S1130D2051C0813421F482E00E94BE054BC082345C
S1130D3021F480E00E94BE0545C0833441F48EE175
S1130D4090E00E94830482E00E94BE053BC084348C
S1130D50C9F584E00E94BE0535C0843421F482E0E4
S1130D600E94BE052FC0823469F580E00E94BE0552
S1130D7029C08091C201882329F1E9EBF1E01186B1
S1130D808285938501969387828798B180E289272B
S1130D9088B982859385059738F088B18F7D88B9A5
S1130DA080E00E94BE050EC08091C501882329F011
S1130DB00E9425041092C50105C00E94290481E007
S1130DC08093C501CF910895CF93DF931F92CDB740
S1130DD0DEB70E9455040E94AE000FEF8FEF8983A7
S1130DE0CE0101960E940B0219811F3F21F00113CD
S1130DF004C08FEF03C0812F01C0812F0E94E00542
S1130E008091C801882309F447C0E9EBF1E0178613
S1130E1021813281A9E8B8E80E9454077C01F69444
S1130E20E794F694E794F694E794F694E794F694AA
S1130E30E794418152819A010E94540796958795BF
S1130E40929582958F7089279F7089276CE3689F9C
S1130E509001699F300D1124CA01821B930B682FE6
S1130E602081223069F018F4213031F015C023308C
S1130E7061F0243071F010C08E2D0E94D8000CC097
S1130E80682F8E2D0E94080107C08E2D0E9420011C
S1130E9003C08E2D0E94F00087E893E10197F1F7DB
S1130EA000C00000012F9ACFA29FB001B39FC001E0
S1130EB0A39F700D811D1124911DB29F700D811D82
S10D0EC01124911D0895F894FFCF4A
S1130ECAFF30303A303000496E67726573652074BA
S1130EDA69656D706F2020004C4953544F210041BD
S1130EEA3D4F4B2020423D424F5252415220200056
S1130EFA50554552544120204142494552544120BB
S1130F0A00436F63696E616E646F2E2E2E2020205B
S1130F1A2000504155534120423D43414E43454CE4
S1130F2A415200496E677265736520756E20766159
S1130F3A6C6F72006D61796F7220612030303A30C3
S1130F4A302020200056616C6F72206D7579206103
S1130F5A6C746F2120004D41583A2039393A353999
S1130F6A20202020202000313233413435364237C4
S10B0F7A3839432A30234400F6
S9030000FC
