:100000000C9454000C9471000C9471000C947100C9
:100010000C9471000C9471000C9471000C9471009C
:100020000C9471000C9471000C9471000C94710488
:100030000C9471000C9471000C9471000C9471007C
:100040000C9471000C9471000C9471000C9471006C
:100050000C9471000C9471000C9471000C9471005C
:100060000C9471000C947100001F000000001F0030
:10007000001F101010101F00001F181818181F0064
:10008000001F1C1C1C1C1F00001F1E1E1E1E1F000C
:10009000001F1F1F1F1F1F0003070F1F0F07030055
:1000A000181C1E1F1E1C180011241FBECFEFD8E005
:1000B000DEBFCDBF11E0A0E0B1E0EEE3F0E102C0B1
:1000C00005900D92A43CB107D9F721E0A4ECB1E072
:1000D00001C01D92A43DB207E1F70E945F070C9496
:1000E0001D080C9400000F931F93CF93DF93082FEC
:1000F000162FD42FC22F60E080E00E94A50380E37A
:10010000800F0E945D0280E3810F0E945D028AE3FE
:100110000E945D0280E38D0F0E945D0280E38C0FE0
:100120000E945D026BE081E091E00E948D03DF910F
:10013000CF911F910F9108950F931F93CF93DF934A
:10014000082F162F60E080E00E94A503CDEC0C9FE5
:10015000D12D1124D695D695D69580E38D0F0E948A
:100160005D02DD0F8D2F880F880FD80F802F8D1B1C
:10017000805D0E945D028AE30E945D021C9FC12D8A
:100180001124C695C695C69580E38C0F0E945D022A
:10019000CC0F8C2F880F880FC80F812F8C1B805D90
:1001A0000E945D026BE081E091E00E948D03DF918F
:1001B000CF911F910F9108950F931F93CF93DF93CA
:1001C000C82FD62F142F022F60E080E00E94A503D5
:1001D000202F412F6D2F8C2F0E94730061E080E053
:1001E0000E94A50360E18DE091E00E948D03DF9104
:1001F000CF911F910F9108950E94890360E080E0E4
:100200000E94A50365E08EE191E00E948D0361E00C
:1002100080E00E94A50360E184E291E00E948D03EA
:100220000895CF93DF93C82FD62F60E080E00E941F
:10023000A5036D2F8C2F0E949C0061E080E00E943E
:10024000A50360E185E391E00E948D03DF91CF91EA
:100250000895CF93DF93C82FD62F60E080E00E94EF
:10026000A5036D2F8C2F0E949C0061E080E00E940E
:10027000A50360E186E491E00E948D03DF91CF91B8
:100280000895CF93DF93C82FD62F60E080E00E94BF
:10029000A5036D2F8C2F0E949C0061E080E00E94DE
:1002A000A50360E187E591E00E948D03DF91CF9186
:1002B00008950E94890360E080E00E94A50365E044
:1002C0008EE191E00E948D0361E080E00E94A50331
:1002D00068E088E691E00E948D0308950E948903FA
:1002E00060E080E00E94A50360E18FE691E00E945B
:1002F0008D0361E080E00E94A50360E180E891E069
:100300000E948D0308950E94890360E080E00E94AE
:10031000A50360E181E991E00E948D0361E080E046
:100320000E94A50360E182EA91E00E948D03089596
:1003300095B1906195B995B1986095B995B1916075
:1003400095B99BB190689BB9813051F028F082300B
:1003500059F0833069F0089585B18F7E85B908958D
:1003600085B1877F85B9089585B18E7F85B9089558
:100370008BB18F778BB90895813071F028F082307E
:1003800099F08330C1F01EC089B186958695869517
:1003900091E089278170089589B18295869587704B
:1003A00091E089278170089589B182958F7091E0DD
:1003B00089278170089589B18695869591E089276E
:1003C0008170089580E00895CF93DF93D0E01EC040
:1003D0008D2F0E94980185E38A95F1F70000C0E017
:1003E00012C08C2F0E94BC01882361F0ED2FF0E039
:1003F000EE0FFF1FEE0FFF1FED54FE4FEC0FF11D30
:10040000808107C0CF5FC43060F3DF5FD43000F37A
:100410008FEFDF91CF91089584B1806184B985B168
:10042000806185B984B1886084B985B1886085B9F7
:1004300084B1816084B985B1816085B98AB18068F1
:100440008AB98BB180688BB98AB1877F8AB98BB141
:1004500088608BB98AB18F7D8AB98BB180628BB984
:100460008AB18F7E8AB98BB180618BB98AB18B7F5B
:100470008AB98BB184608BB90895CF93DF93EC0177
:100480000E94E4018F3F31F48093C4018093000106
:1004900080E010C09091C401891309C090910001BF
:1004A000891729F088838093000181E003C080933D
:1004B000C40180E0DF91CF91089565B1982F9074C9
:1004C000492F50E055954795559547955595479532
:1004D00055954795982F9078292F30E0022E232F9D
:1004E000000C221F330B000C221F331F962F997F05
:1004F000492B242B25B968B1982F9071492F50E0D2
:10050000559547955595479555954795982F9072D0
:10051000292F30E0359527953595279535952795E1
:10052000962F997F492B242B28B99BB192609BB9B8
:100530009BB191609BB925ED2A95F1F700009BB125
:100540009E7F9BB99BB19D7F9BB995ED9A95F1F7E5
:10055000000065B120E1829FC0011124AC0140740C
:1005600055275595479555954795559547955595D3
:1005700047959C0120783327022E232F000C221F41
:10058000330B000C221F331F362F397F432B242BB4
:1005900025B948B19C0120713327359527953595AC
:1005A00027953595279580729927959587959595E7
:1005B000879595958795942F997F292B822B88B9BC
:1005C0008BB182608BB98BB181608BB985ED8A95D7
:1005D000F1F700008BB18E7F8BB98BB18D7F8BB91A
:1005E00095ED9A95F1F70000089565B1982F9074F4
:1005F000492F50E055954795559547955595479501
:1006000055954795982F9078292F30E0022E232F6B
:10061000000C221F330B000C221F331F962F997FD3
:10062000492B242B25B968B1982F9071492F50E0A0
:10063000559547955595479555954795982F90729F
:10064000292F30E0359527953595279535952795B0
:10065000962F997F492B242B28B99BB191609BB988
:10066000EFE9FFE03197F1F700C000009BB19E7FFA
:100670009BB9EFE9FFE03197F1F700C0000065B1E9
:10068000F0E18F9FC0011124AC01407455275595AE
:1006900047955595479555954795559547959C018F
:1006A00020783327022E232F000C221F330B000C3F
:1006B000221F331F362F397F432B242B25B948B1F6
:1006C0009C012071332735952795359527953595CC
:1006D00027958072992795958795959587959595F6
:1006E0008795942F997F292B822B88B98BB18160B4
:1006F0008BB98FE99FE00197F1F700C000008BB143
:100700008E7F8BB9EFE9FFE03197F1F700C0000071
:10071000089581E00E94F50208950F931F93CF93EF
:10072000DF93009769F0D62F8C01C0E007C0F80175
:10073000EC0FF11D80810E945D02CF5FCD17B8F3F1
:10074000DF91CF911F910F910895623031F06330A6
:1007500031F0613029F4805C03C08C5E01C08C5A9A
:1007600080680E94F5020895EF92FF920F931F9305
:10077000CF93DF937C01862F90E0880F991F880F1D
:10078000991F880F991F8064C0E0D0E00DC0F70169
:10079000EC0FFD1F149101E0080F0E94F502812F5C
:1007A0000E945D022196802FC830D10580F3DF9131
:1007B000CF911F910F91FF90EF900895CF93DF930A
:1007C0002FEF86E791E0215080409040E1F700C094
:1007D000000085B1897F85B988B1897F88B91BB848
:1007E00084B1866084B987B1866087B98AB1836035
:1007F0008AB985B1897F85B988B1866088B98BB19E
:1008000081608BB98FE99FE00197F1F700C000008C
:100810008BB18E7F8BB98FE99FE00197F1F700C014
:10082000000085B1897F85B988B1866088B98BB1B0
:1008300081608BB98FE99FE00197F1F700C000005C
:100840008BB18E7F8BB98FE99FE00197F1F700C0E4
:10085000000085B1897F85B988B1897F846088B9B6
:100860008BB181608BB98FE99FE00197F1F700C0F0
:1008700000008BB18E7F8BB98FE99FE00197F1F774
:1008800000C0000088E20E94F5028CE00E94F502A0
:1008900060E0C0E00AC0D1E0D60F8C2F90E088590C
:1008A0009F4F0E94B403C85F6D2FC034A0F3DF9147
:1008B000CF91089588E00E94F50208958CE00E948F
:1008C000F5020895109280008CE08093810089E603
:1008D00098E1909389008093880082E080936F0074
:1008E00008951F920F920FB60F9211248F9381E0FB
:1008F0008093CE018F910F900FBE0F901F9018958F
:1009000085B18F7D85B988B18F7E88B988B18F7D9B
:1009100088B9089584B1806284B987B1806187B94C
:1009200087B1806287B90E9480040E94DE030E9422
:1009300089030E940C02E5ECF1E010821282118220
:1009400013821482158216821782108611861586EC
:1009500013861286148681E086870E94620478944A
:100960000895E5ECF1E01282118217821682158259
:100970001482138208952091C6013091C701280F77
:10098000391F2037374138F08FE697E19093C70140
:100990008093C6010895E5ECF1E021813281820F58
:1009A000931F9283818308952091C6013091C701DE
:1009B00081E0232B09F480E00895E5ECF1E08581E6
:1009C0009681880F282F220F220F820F890F8C33D8
:1009D00048F48091C6019091C7018037974120F07B
:1009E00080E0089580E0089581E00895E5ECF1E06D
:1009F00083819481880F282F220F220F820F282FA6
:100A0000290F85819681880F382F330F330F830F7D
:100A1000890F90E03CE3239F800D911D1124928368
:100A2000818308950E9480040E94B1040E94FC000A
:100A300008950E948004E5ECF1E0268145816481FF
:100A400083810E94DC000895CF93DF93E5ECF1E011
:100A5000148685B1806285B988B1806188B92181A9
:100A60003281A9E8B8E80E940E08EC01D695C79536
:100A7000D295C295CF70CD27DF70CD2741815281AD
:100A80009A010E940E0896958795929582958F708F
:100A900089279F7089276CE3689F9001699F300DBB
:100AA0001124CA01821B930B682F8C2F0E942901ED
:100AB000DF91CF910895CF93DF9385B18F7D85B975
:100AC00088B1806188B9E5ECF1E021813281A9E843
:100AD000B8E80E940E08EC01D695C795D295C2954C
:100AE000CF70CD27DF70CD27418152819A010E94BE
:100AF0000E0896958795929582958F7089279F709D
:100B000089276CE3689F9001699F300D1124CA0109
:100B1000821B930B682F8C2F0E944101DF91CF9194
:100B20000895CF93DF9385B18F7D85B988B18061BA
:100B300088B9E5ECF1E021813281A9E8B8E80E94AA
:100B40000E08EC01D695C795D295C295CF70CD27EA
:100B5000DF70CD27418152819A010E940E0896953F
:100B60008795929582958F7089279F7089276CE36E
:100B7000689F9001699F300D1124CA01821B930B5D
:100B8000682F8C2F0E941101DF91CF910895CF9390
:100B9000DF930E948004C5ECD1E01D860E945901BC
:100BA0001B861A86DF91CF9108958093C50182300C
:100BB00091F028F4882349F0813051F00895843071
:100BC00081F060F0853081F008950E94120508954B
:100BD0000E94190508950E94240508950E945B054E
:100BE00008950E94910508950E94C7050895CF9326
:100BF0009091C501923009F4C6C030F4992369F090
:100C0000913009F45BC059C1943009F41AC108F459
:100C1000F8C0953009F426C150C1C0EDC80FCA30E4
:100C2000C0F48091CD01882321F081E08093D3012D
:100C300044C10E94B104E5ECF1E0158214821382F4
:100C4000C68381E087830E94F60481E00E94D50577
:100C500034C1813479F40E946E012FEF87EA91E666
:100C6000215080409040E1F700C0000081E0809377
:100C7000D30123C18334A1F48091CD01882321F0D5
:100C800081E08093D30119C10E94B1048EE190E00C
:100C90009093C7018093C60182E00E94D5050DC1E3
:100CA000843409F00AC19091CD0181E0911180E076
:100CB000E5ECF1E0808781E08687FFC090ED980F3A
:100CC0009A3098F4E5ECF1E0848183838581848314
:100CD0008681858396838781843018F487818F5F2E
:100CE000878381E08093D301E8C0813461F50E945D
:100CF000F6040E94D40481110FC00E946E012FEFF0
:100D000087EA91E6215080409040E1F700C0000062
:100D100081E08093D301D1C00E94DD0481110FC016
:100D20000E9483012FEF87EA91E621508040904096
:100D3000E1F700C0000081E08093D301BEC082E0F3
:100D40000E94D505BAC0823421F480E00E94D50506
:100D5000B4C0833451F40E94F6048EE190E00E9406
:100D6000BB0482E00E94D505A8C0843409F0A5C068
:100D70009091CD0181E0911180E0E5ECF1E0808778
:100D800081E086879AC0823421F483E00E94D505F1
:100D900012C0833441F48EE190E00E94BB0481E0F4
:100DA0008093D30108C0843431F481E08093CD0175
:100DB00084E00E94D5058091CE01882309F47DC08E
:100DC000E5ECF1E0118684858F5F848784858A3025
:100DD00008F473C0148681819281892B39F0818156
:100DE000928101979283818381E086878091C601F9
:100DF0009091C701892B09F060C085E00E94D5055C
:100E00005CC0813421F482E00E94D50556C0823452
:100E100021F480E00E94D50550C0833441F48EE176
:100E200090E00E94BB0481E08093D30146C08434EB
:100E300009F043C081E08093CD0184E00E94D50594
:100E40003CC0843431F41092CD0182E00E94D5057B
:100E500034C0823491F581E08093CD0180E00E941E
:100E6000D5052BC08091CE01882339F1E5ECF1E066
:100E700011868285938501969387828798B180E257
:100E8000892788B98585882329F00E945A04109201
:100E9000D20105C00E945E0481E08093D20180915E
:100EA000CF019091D001C29740F088B18F7D88B971
:100EB0000E945E0480E00E94D505CF910895CF93F3
:100EC000DF931F92CDB7DEB70E948A040E94FC0018
:100ED00000E0FF24FA948091CE018823E1F38FEFA4
:100EE0008983CE0101960E943D0219811F3F21F0A6
:100EF000F11204C08FEF03C0812F01C0812F0E9427
:100F0000F7051092CE010F5F053008F485C080917F
:100F1000D301882309F47DC0E5ECF1E01686218138
:100F20003281A9E8B8E80E940E087C01F694E794A3
:100F3000F694E794F694E794F694E794F694E7949D
:100F4000418152819A010E940E089695879592954B
:100F500082958F7089279F7089276CE3689F900125
:100F6000699F300D1124CA01821B930B682F2081C9
:100F70002230F9F128F4222349F02130A9F04BC0A6
:100F80002330E9F1243009F43FC045C08091CD0100
:100F9000882331F060E080E00E94110100E03CC055
:100FA0000E94FC0000E038C08091CD018823B9F098
:100FB000E5ECF1E093813481990F892F880F880F38
:100FC000890F95812681990F692F660F660F960FFD
:100FD000692F620F830F0E94110100E01DC0E5EC34
:100FE000F1E026814581648183810E94DC0000E07C
:100FF00013C0682F8E2D0E94290100E00DC08E2D98
:101000000E94410100E008C08E2D0E94110100E005
:1010100003C000E001C000E0F12E5DCFA29FB0014F
:10102000B39FC001A39F700D811D1124911DB29F1C
:0E103000700D811D1124911D0895F894FFCFBD
:10103E00FF202020202020202020202000413D4F76
:10104E004B2020423D424F52524152202000303020
:10105E003A303000496E6772657365207469656D4C
:10106E00706F202000505545525441202041424976
:10107E00455254412000436F63696E616E646F2E5A
:10108E002E2E2020202000504155534120423D431A
:10109E00414E43454C4152004C4953544F21004957
:1010AE006E677265736520756E2076616C6F720067
:1010BE006D61796F7220612030303A3030202020FF
:1010CE0000464F524D41544F204552524F4E454FC0
:1010DE002000466F726D61746F3A2039393A353996
:1010EE002020003132334134353642373839432AE5
:0410FE003023440057
:00000001FF
