S00B00005450322E7372656343
S11300000C9454000C9471000C9471000C947100C5
S11300100C9471000C9471000C9471000C94710098
S11300200C9471000C9471000C9471000C94710088
S11300300C9471000C9471000C9471000C94710078
S11300400C9471000C9471000C9471000C94710068
S11300500C9471000C9471000C9471000C94710058
S11300600C9471000C947100001F000000001F002C
S1130070001F101010101F00001F181818181F0060
S1130080001F1C1C1C1C1F00001F1E1E1E1E1F0008
S1130090001F1F1F1F1F1F0003070F1F0F07030051
S11300A0181C1E1F1E1C180011241FBECFEFD8E001
S11300B0DEBFCDBF11E0A0E0B1E0EEEEF4E002C09F
S11300C005900D92AA30B107D9F721E0AAE0B1E07A
S11300D001C01D92AA30B207E1F70E9469020C9494
S11300E075020C94000065B1982F9074492F50E06C
S11300F055954795559547955595479555954795E4
S1130100982F9078292F30E0022E232F000C221FE5
S1130110330B000C221F331F962F997F492B242B5E
S113012025B968B1982F9071492F50E0559547959E
S11301305595479555954795982F9072292F30E0FE
S1130140359527953595279535952795962F997F3C
S1130150492B242B28B99BB192609BB99BB1916028
S11301609BB92AE62A95F1F700C09BB19E7F9BB903
S11301709BB19D7F9BB99AE69A95F1F700C065B152
S113018020E1829FC0011124AC014074552755958C
S113019047955595479555954795559547959C0190
S11301A020783327022E232F000C221F330B000C40
S11301B0221F331F362F397F432B242B25B948B1F7
S11301C09C012071332735952795359527953595CD
S11301D027958072992795958795959587959595F7
S11301E08795942F997F292B822B88B98BB18260B4
S11301F08BB98BB181608BB98AE68A95F1F700C01F
S11302008BB18E7F8BB98BB18D7F8BB99AE69A9522
S1130210F1F700C0089565B1982F9074492F50E00C
S113022055954795559547955595479555954795B2
S1130230982F9078292F30E0022E232F000C221FB4
S1130240330B000C221F331F962F997F492B242B2D
S113025025B968B1982F9071492F50E0559547956D
S11302605595479555954795982F9072292F30E0CD
S1130270359527953595279535952795962F997F0B
S1130280492B242B28B99BB191609BB9EFECF7E083
S11302903197F1F700C000009BB19E7F9BB9EFEC52
S11302A0F7E03197F1F700C0000065B1F0E18F9FEE
S11302B0C0011124AC0140745527559547955595B7
S11302C0479555954795559547959C012078332733
S11302D0022E232F000C221F330B000C221F331F6E
S11302E0362F397F432B242B25B948B19C0120712B
S11302F0332735952795359527953595279580721C
S11303009927959587959595879595958795942F94
S1130310997F292B822B88B98BB181608BB98FECA3
S113032097E00197F1F700C000008BB18E7F8BB985
S1130330EFECF7E03197F1F700C0000008950F9358
S11303401F93CF93DF93009769F0D62F8C01C0E001
S113035007C0F801EC0FF11D80810E947300CF5F8C
S1130360CD17B8F3DF91CF911F910F9108956230AB
S113037031F0633031F0613029F4805C03C08C5E6D
S113038001C08C5A80680E940B010895EF92FF927D
S11303900F931F93CF93DF937C01862F90E0880FF8
S11303A0991F880F991F880F991F8064C0E0D0E0BF
S11303B00DC0F701EC0FFD1F149101E0080F0E941E
S11303C00B01812F0E9473002196802FC830D10524
S11303D080F3DF91CF911F910F91FF90EF900895DB
S11303E0CF93DF938FE59AEE0197F1F700C00000F9
S11303F085B1897F85B988B1897F88B91BB884B1F3
S1130400866084B987B1866087B98AB183608AB906
S113041085B1897F85B988B1866088B98BB18160DF
S11304208BB98FEC97E00197F1F700C000008BB116
S11304308E7F8BB98FEC97E00197F1F700C0000035
S113044085B1897F85B988B1866088B98BB18160AF
S11304508BB98FEC97E00197F1F700C000008BB1E6
S11304608E7F8BB98FEC97E00197F1F700C0000005
S113047085B1897F85B988B1897F846088B98BB15A
S113048081608BB98FEC97E00197F1F700C0000011
S11304908BB18E7F8BB98FEC97E00197F1F700C099
S11304A0000088E20E940B018CE00E940B0160E0D6
S11304B0C0E00AC0D1E0D60F8C2F90E088599F4F3E
S11304C00E94C601C85F6D2FC034A0F3DF91CF91A5
S11304D008950E94F00160E080E00E94B70168E0A6
S11104E080E091E00E949F01FFCFF894FFCFCF
S10D04EE484F4C49495321210000F6
S9030000FC
