:100000000C943D000C9425020C9425020C942502BE
:100010000C9425020C9425020C9425020C942502C4
:100020000C9425020C9425020C9425020C942502B4
:100030000C9425020C9425020C9425020C942502A4
:100040000C9425020C9425020C9425020C94250294
:100050000C9425020C9425020C9425020C94250284
:100060000C9425020C94250201000120800120013E
:100070002100044E01210122800011241FBECFEF78
:10008000D8E0DEBFCDBFE8E6F0E040E017C0B591B4
:10009000A59135912591059107FD0CC0959185910C
:1000A000EF01F92FE82F05900D92A217B307D9F7AA
:1000B000FE0104C01D92A217B307E1F7E937F40768
:0E00C00031F70E948D010C946500F894FFCF7B
:1000CE0040E0D3C0642F70E0FB01EE0FFF1FE60F80
:1000DE00F71FE050FF4F518187E038C0252F30E0E9
:1000EE00082E02C0359527950A94E2F720FF17C017
:1000FE0095B1916095B9000000000000000000006D
:10010E0000000000000000000000000095B19E7F7E
:10011E0095B90000000000000000000016C095B167
:10012E00916095B9000000000000000095B19E7F1F
:10013E0095B9000000000000000000000000000063
:10014E0000000000000000000000815088230CF029
:10015E00C5CFFB01EE0FFF1FE60FF71FE050FF4F5D
:10016E00508187E038C0252F30E0082E02C035952B
:10017E0027950A94E2F720FF17C095B1916095B9C3
:10018E000000000000000000000000000000000061
:10019E0000000000000095B19E7F95B900000000A0
:1001AE0000000000000016C095B1916095B90000E6
:1001BE0000000000000095B19E7F95B90000000080
:1001CE000000000000000000000000000000000021
:1001DE0000000000815088230CF0C5CFFB01EE0F0C
:1001EE00FF1F6E0F7F1FFB01E050FF4F528187E014
:1001FE0038C0252F30E0082E02C0359527950A9479
:10020E00E2F720FF17C095B1916095B9000000008C
:10021E0000000000000000000000000000000000D0
:10022E00000095B19E7F95B900000000000000000F
:10023E00000016C095B1916095B900000000000055
:10024E00000095B19E7F95B90000000000000000EF
:10025E000000000000000000000000000000000090
:10026E00815088230CF0C5CF4F5F483008F42ACF59
:02027E000895E1
:1002800080E00DC0E82FF0E09F01220F331FE20F46
:10029000F31FE050FF4F1282118210828F5F88306F
:1002A00088F380911E01811119C080911A0181117A
:1002B0000BC0E0E0F1E08FEF808386838487828B40
:1002C00081E080931A0126C0E0E0F1E08FEF8583A2
:1002D0008387818B878B10921A011CC080911B0130
:1002E00090E027E030E0281B390BF901EE0FFF1FEB
:1002F0002E0F3F1FF901E050FF4F2FEF2183019692
:1003000087709078992324F40197886F9F6F0196E6
:0A03100080931B010E94670008950E
:10031A008FEF8AB91BB884B1816084B987B18C7FA9
:10032A0087B928B181E090E002C0880F991F2A9509
:10033A00E2F7826098B1892B88B90E94C601809140
:10034A001F01811103C00E940B0202C00E94E90131
:10035A0080911D018F3020F00E94400110921D01F2
:10036A0080911D018F5F80931D0180911C018F5F19
:10037A0080931C018FE39CE90197F1F700C000000C
:02038A00DCCFC6
:10038C0030990DC08091190181110BC080911F0112
:10039C0091E0892780931F019093190102C010925C
:1003AC00190131990DC08091180181110BC08091F8
:1003BC001E0191E0892780931E01909318010895E6
:0603CC00109218010895D3
:1003D20080911C018A30E8F010921C0181E090E0CB
:1003E2000090210102C0880F991F0A94E2F78BB98D
:1003F20080912101873018F09FEF909320018111A5
:1004020003C091E09093200190912001890F809385
:040412002101089527
:1004160080911C018A30A8F010921C0181E090E0C6
:100426000090210102C0880F991F0A94E2F78BB948
:10043600809121018F5F80932101883010F0109206
:0404460021010895F3
:04044A000C9400000E
:01044E00FFAE
:00000001FF
