:100000000C943D000C941C020C941C020C941C02D9
:100010000C941C020C941C020C941C020C941C02E8
:100020000C941C020C941C020C941C020C941C02D8
:100030000C941C020C941C020C941C020C941C02C8
:100040000C941C020C941C020C941C020C941C02B8
:100050000C941C020C941C020C941C020C941C02A8
:100060000C941C020C941C020100011E80011E0154
:100070001F00043C011F0122800011241FBECFEF8E
:10008000D8E0DEBFCDBFE8E6F0E040E017C0B591B4
:10009000A59135912591059107FD0CC0959185910C
:1000A000EF01F92FE82F05900D92A217B307D9F7AA
:1000B000FE0104C01D92A217B307E1F7E937F40768
:0E00C00031F70E948D010C946500F894FFCF7B
:1000CE0040E0D3C0642F70E0FB01EE0FFF1FE60F80
:1000DE00F71FE050FF4F518187E038C0252F30E0E9
:1000EE00082E02C0359527950A94E2F720FF17C017
:1000FE0095B1916095B9000000000000000000006D
:10010E0000000000000000000000000095B19E7F7E
:10011E0095B90000000000000000000016C095B167
:10012E00916095B9000000000000000095B19E7F1F
:10013E0095B9000000000000000000000000000063
:10014E0000000000000000000000815088230CF029
:10015E00C5CFFB01EE0FFF1FE60FF71FE050FF4F5D
:10016E00508187E038C0252F30E0082E02C035952B
:10017E0027950A94E2F720FF17C095B1916095B9C3
:10018E000000000000000000000000000000000061
:10019E0000000000000095B19E7F95B900000000A0
:1001AE0000000000000016C095B1916095B90000E6
:1001BE0000000000000095B19E7F95B90000000080
:1001CE000000000000000000000000000000000021
:1001DE0000000000815088230CF0C5CFFB01EE0F0C
:1001EE00FF1F6E0F7F1FFB01E050FF4F528187E014
:1001FE0038C0252F30E0082E02C0359527950A9479
:10020E00E2F720FF17C095B1916095B9000000008C
:10021E0000000000000000000000000000000000D0
:10022E00000095B19E7F95B900000000000000000F
:10023E00000016C095B1916095B900000000000055
:10024E00000095B19E7F95B90000000000000000EF
:10025E000000000000000000000000000000000090
:10026E00815088230CF0C5CF4F5F483008F42ACF59
:02027E000895E1
:1002800080E00DC0E82FF0E09F01220F331FE20F46
:10029000F31FE050FF4F1282118210828F5F88306F
:1002A00088F380911C01811119C080911A0181117C
:1002B0000BC0E0E0F1E08FEF808386838487828B40
:1002C00081E080931A0126C0E0E0F1E08FEF8583A2
:1002D0008387818B878B10921A011CC080911B0130
:1002E00090E027E030E0281B390BF901EE0FFF1FEB
:1002F0002E0F3F1FF901E050FF4F2FEF2183019692
:1003000087709078992324F40197886F9F6F0196E6
:0A03100080931B010E94670008950E
:10031A008FEF8AB91BB884B1816084B987B18C7FA9
:10032A0087B988B1836088B90E94BD0180911D0197
:10033A00811103C00E94020202C00E94E001809162
:10034A002001863920F00E9440011092200183EC9E
:10035A0099E00197F1F700C0000080912101865FC2
:10036A008093210180912001865F80932001DCCF58
:10037A0030990DC08091190181110BC080911D0126
:10038A0091E0892780931D019093190102C0109270
:10039A00190131990DC08091180181110BC080910A
:1003AA001C0191E0892780931C01909318010895FC
:0603BA00109218010895E5
:1003C000809121018436E8F01092210181E090E0D3
:1003D00000901F0102C0880F991F0A94E2F78BB9A1
:1003E00090911F0180911E01890F80931F0187301A
:1003F00018F09FEF90931E01811103C081E080935C
:040400001E0108953C
:10040400809121018436A8F01092210181E090E0CE
:1004140000901F0102C0880F991F0A94E2F78BB95C
:1004240080911F018F5F80931F01883010F010921C
:040434001F01089507
:040438000C94000020
:01043C00FFC0
:00000001FF
