S00B00005450342E7372656341
S11300000C943A000C9457000C9457000C9457002D
S11300100C9457000C9457000C9457000C94570000
S11300200C9457000C9457000C9457000C945700F0
S11300300C9457000C9457000C947D020C945700B8
S11300400C9457000C9457000C9405040C94310440
S11300500C9457000C9457000C9457000C945700C0
S11300600C9457000C9457006364696E6F70737539
S113007078585B0011241FBECFEFD8E0DEBFCDBFA0
S113008011E0A0E0B1E0E8EBF0E102C005900D92D0
S1130090A238B107D9F722E0A2E8B1E001C01D926D
S11300A0AD33B207E1F70E946D040C945A080C9426
S11300B0000087B1877F87B988B1877F88B9ECE76B
S11300C0F0E0808183648083EAE7F0E080818768E0
S11300D080830895EAE7F0E08081806480838091E2
S11300E07A0084FFFCCFEAE7F0E0808180618083BE
S11300F0809178009091790008951092890110926E
S11301008801109287011092820108950F931F9322
S1130110CF93DF938091870190918801019690930A
S11301208801809387010E946A008F36910528F028
S11301308E3D23E0920720F405C080E090E002C0E9
S11301408FEF93E0AC0160E070E0DB01CA01880F3F
S1130150991FAA1FBB1F840F951FA61FB71FAC01B1
S1130160BD01440F551F661F771F440F551F661F9F
S1130170771F8C019D01040F151F261F371FC9010E
S1130180B801660F771F881F991F2FEF33E040E0F7
S113019050E00E949C048CE390E0BC01621B730B52
S11301A0809189018130D9F030F08230B1F183300F
S11301B009F444C05FC010928201CB014E97209194
S11301C08701309188012817390708F453C081E06A
S11301D08093890110928801109287014BC0C091CD
S11301E08701D09188019E01AFEFB0E00E94BE0468
S11301F02AE030E040E050E00E949C042093820119
S11302002A97C0F18FEF8093820182E08093890165
S113021010928801109287012DC08FEF8093820184
S113022080918701909188010A9720F183E080935F
S1130230890110928801109287011CC0C091870126
S1130240D09188019E01AFEFB0E00E94BE042AE085
S113025030E040E050E00E949C042095209382010D
S11302602A9740F01092820110928901109288011D
S113027010928701DF91CF911F910F910895CF9232
S1130280DF92EF92FF920F931F930E94A2020091BC
S113029083011091840120918501309186016B01C5
S11302A07C01C01AD10AE20AF30A48EEC41643E0FC
S11302B0D406E104F10460F0609383017093840137
S11302C080938501909386010E9486000E94090212
S11302D01F910F91FF90EF90DF90CF900895809140
S11302E0820108958093900108950E94C3020895A5
S11302F00E94BD02089584B1806284B90E94AB0259
S11303000E94710280E00E94720180E00E947501E7
S113031080E00E9478010895E0E8F0E090819F7CFD
S1130320908394B1946094B9882321F085B184605A
S113033085B9089585B18B7F85B90895E0E8F0E02B
S11303408081806380830895E0E8F0E090819F736A
S1130350908394B1926094B9882321F085B182602E
S113036085B9089585B18D7F85B90895E0E8F0E0F9
S11303708081806C8083089591E090938E0188231E
S113038021F085B1806285B9089585B18F7D85B9E5
S1130390089510928E0108950F931F930E94A20254
S11303A000918A0110918B0120918C0130918D0173
S11303B06017710782079307E1F060938A017093D5
S11303C08B0180938C0190938D0180918E0181111A
S11303D010C080918F018F5F80938F019091900165
S11303E0891720F485B18F7D85B903C085B18062FA
S11303F085B91F910F9108958093930160939201A1
S113040040939101089540E060E080E00E94FC0187
S11304100895FF920F931F93CF93DF930E946F0170
S1130420282F30E040919301429FC001439F900DDB
S11304301124EFEFF0E0BF010E948804F62E462F4E
S113044050919201529FC001539F900D1124BF01FE
S11304500E948804062FD62F50919101529FC0010B
S1130460539F900D1124BF010E948804162FC62F9C
S1130470F11004C081E00E94BC010BC04F3F21F485
S113048080E00E94BC0105C00E94C9018F2D0E941A
S11304907201D11104C081E00E948C010BC0DF3FC6
S11304A021F480E00E948C0105C00E949E01802FEF
S11304B00E947501C11104C081E00E94A4010BC017
S11304C0CF3F21F480E00E94A40105C00E94B60140
S11304D0812F0E947801DF91CF911F910F91FF909E
S11304E0089582E084BD83E085BD88E187BDEEE6A2
S11304F0F0E080818260808308951F920F920FB68E
S11305000F9211248F939F93AF93BF938091940183
S113051090919501A0919601B09197010196A11D2A
S1130520B11D8093940190939501A0939601B0938B
S11305309701BF91AF919F918F910F900FBE0F9034
S11305401F90189560919401709195018091960186
S113055090919701089584B1866084B981EF809366
S113056080008BE0809381001092890010928800B3
S113057010928B0010928A00089590E09093890065
S113058080938800089590E090938B0080938A0074
S11305900895FC01E05CFF4F1082319610820895AB
S11305A0FC01E05CFF4F20813196908181E02913AA
S11305B080E008950F931F93CF93DF93EC018B0199
S11305C00E94D002811113C0FE01EF5BFF4F8081B6
S11305D0DE01A80FB11D8C91D8018C9380818F5FAF
S11305E080838081803428F0108281E003C080E021
S11305F001C081E0DF91CF911F910F9108959C017B
S1130600FC01E05CFF4F90819F5F903408F090E024
S1130610F901EF5BFF4F208181E0921380E00895A0
S11306201F93CF93DF93EC01162F0E94FF028111D9
S113063011C0FE01E05CFF4F8081DE01A80FB11DF7
S11306401C9380818F5F80838081803428F01082A6
S113065081E003C080E001C081E0DF91CF911F9170
S113066008951092980108950F931F93CF93DF93E9
S113067000D000D000D0CDB7DEB7FC01208122230A
S113068009F44BC08C014AE050E060E071E00E9444
S1130690E104892BF1F5CE0101969F938F93029685
S11306A09F938F9302969F938F938BE091E09F93F8
S11306B08F93C8010A969F938F930E94EF040FB6FD
S11306C0F894DEBF0FBECDBF0397F1F48D819E81F8
S11306D08F3F910509F098F46B817C816F3F710520
S11306E009F068F449815A814F3F510509F038F403
S11306F00E94FC0184E191E00E94F8030EC089E2AB
S113070091E00E94F80309C088E491E00E94F80394
S113071004C089E691E00E94F80326960FB6F89487
S1130720DEBF0FBECDBFDF91CF911F910F91089512
S1130730CF93DF931F92CDB7DEB729C089818A306A
S113074011F08D30C1F480919801E82FF0E0E75664
S1130750FE4F1082882361F089E991E00E94F8033A
S113076086E291E00E94F80389E991E00E94340353
S1130770109298010CC0909198019F3140F4E92F98
S1130780F0E0E756FE4F80839F5F90939801CE017F
S113079001960E94E5038111D1CF0F90DF91CF9193
S11307A008951092C50087E68093C40086E0809384
S11307B0C20088E98093C10089EB91E00E94C902DC
S11307C08BEF91E00E94C9020895BC0189EB91E08E
S11307D00E94DA020895682F8BEF91E00E941003C3
S11307E0882329F0E1ECF0E0808180628083089521
S11307F0CF93DF93EC0103C00E94EB032196888121
S11308008111FACFDF91CF9108951F920F920FB605
S11308100F9211242F933F934F935F936F937F9382
S11308208F939F93AF93BF93EF93FF936091C60011
S1130830683031F06F3721F089EB91E00E941003AA
S1130840FF91EF91BF91AF919F918F917F916F91A4
S11308505F914F913F912F910F900FBE0F901F907A
S113086018951F920F920FB60F9211242F933F9356
S11308704F935F936F937F938F939F93AF93BF93A4
S1130880EF93FF93CF93DF931F92CDB7DEB7BE01F3
S11308906F5F7F4F8BEF91E00E94DA02882321F093
S11308A089818093C60005C0E1ECF0E080818F7DF2
S11308B080830F90DF91CF91FF91EF91BF91AF9122
S11308C09F918F917F916F915F914F913F912F9164
S11308D00F900FBE0F901F9018950E947D000E94EC
S11308E059000E947B010E94D1030E9403020E94CE
S11308F0310378940E9498030E943F010E94CC0126
S113090083B7816083BF889583B78E7F83BFF2CF1F
S113091097FB072E16F4009407D077FD09D00E94A8
S1130920CD0407FC05D03EF4909581959F4F089522
S1130930709561957F4F0895A1E21A2EAA1BBB1BE7
S1130940FD010DC0AA1FBB1FEE1FFF1FA217B30797
S1130950E407F50720F0A21BB30BE40BF50B661FAD
S1130960771F881F991F1A9469F760957095809571
S113097090959B01AC01BD01CF010895A29FB001E8
S1130980B39FC001A39F700D811D1124911DB29FBF
S1130990700D811D1124911D0895AA1BBB1B51E1EB
S11309A007C0AA1FBB1FA617B70710F0A61BB70BDB
S11309B0881F991F5A95A9F780959095BC01CD0180
S11309C00895FB01DC014150504030F08D910190BD
S11309D0801919F40020B9F7881B990B0895AEE02B
S11309E0B0E0E5EFF4E00C94330885E08C838B8968
S11309F09C899A838983AE01495E5F4F6D897E89A4
S1130A00CE0101960E94A4062E96E2E00C944F08B3
S1130A1020FD09C0FC0123FD05C022FF02C0738331
S1130A20628351834083089544FD17C046FD17C077
S1130A30AB01BC01DA01FB01AA0FBB1FEE1FFF1FB4
S1130A401094D1F74A0F5B1F6E1F7F1FCB01BA01B1
S1130A50660F771F881F991F09C033E001C034E077
S1130A60660F771F881F991F3150D1F7620F711DD0
S1130A70811D911D08950F931F93CF93DF938C01D4
S1130A80C8010E94C907EC0197FD08C00E94B50780
S1130A90892BB1F7B801CE010E940708CE01DF917E
S1130AA0CF911F910F9108958F929F92AF92BF9211
S1130AB0EF92FF920F931F93CF93DF938C01D62F66
S1130AC07A01B22E0E94C9079C0133272B323105CB
S1130AD031F02D32310561F48B2D8068B82ED15060
S1130AE011F480E068C0C8010E94C90797FDF9CFDE
S1130AF0CB2DCD7F2B2D207309F58033F9F4AA2457
S1130B00AA94AD0E09F443C0C8010E94C90797FD19
S1130B103EC09C012F7D33272835310549F4C2643A
S1130B20D250A9F1C8010E94C90797FF07C02FC07E
S1130B30B6FE02C0C26001C0C261DA2D812C912CC4
S1130B40540120ED280F283080F0C4FF04C0B80100
S1130B500E94070819C02A3040F0C6FFF8CF2F7D45
S1130B603FEE320F363098F727504C2FC501B401B1
S1130B700E9414054B015C01C260D15059F0C801B8
S1130B800E94C90797FFDDCFC1FD04C0AACF812C05
S1130B90912C5401C7FF08C0B094A0949094809401
S1130BA0811C911CA11CB11C2C2FB501A401C701EF
S1130BB00E94080581E0DF91CF911F910F91FF9072
S1130BC0EF90BF90AF909F908F900895A0E2B0E017
S1130BD0ECEEF5E00C9426085C01962E7A01F901FE
S1130BE08E010F5F1F4F680180E2D8011D928A9524
S1130BF0E9F7D50113968C9080E090E0612C712C7C
S1130C0030E061E070E083FC259183FE21918F0147
S1130C10522E211103C080E090E092C02E3511F4D1
S1130C20009751F1432F50E0481759073CF42D35F4
S1130C3059F12D3219F4772009F103C0772009F412
S1130C406AC0452D469546954695D601A40FB11D1B
S1130C50452D47708B0102C0000F111F4A95E2F722
S1130C60A8015C91452B4C93651459F0561410F46B
S1130C705394E7CF5A94E5CF31E004C077247394BA
S1130C8001C0712C0196BFCF772019F08E8180624C
S1130C908E83311103C08824839417C0F6019E010A
S1130CA02F5D3F4F8081809581932E173F07D1F7A9
S1130CB0F2CFE114F10429F0D7018C93F7013196B6
S1130CC07F019A94812C9920F9F0C5010E94C907EB
S1130CD097FD18C0FC01FF2723E0F595E7952A95B9
S1130CE0E1F7EC0DFD1D208130E0AC014770552784
S1130CF002C0359527954A95E2F720FDDACFB50174
S1130D000E940708811087CFE114F10411F0D70184
S1130D101C92C80115C0422F469546954695D601AA
S1130D20A40FB11D422F47708B0102C0000F111F89
S1130D304A95E2F7A8015C91452B4C93622EA2CF11
S1130D40A096EFE00C944208A0E0B0E0EAEAF6E0F6
S1130D500C9426086C01EB015A01FC0117821682DF
S1130D60512CF601E380FE01E3FC8591E3FE8191C1
S1130D70182FEF01882309F4EEC090E00E94B50714
S1130D80892B21F0C6010E943B05EBCF153241F4BB
S1130D90FE01E3FC1591E3FE1191EF01153281F49C
S1130DA0C6010E94C90797FDD4C0412F50E09C01A1
S1130DB0332724173507A9F2B6010E940708CBC0D0
S1130DC01A3239F4E3FC1591E3FE1191EF0101E0CD
S1130DD001C000E0F12C20ED210F2A3080F40260E4
S1130DE06F2D70E080E090E040E20E941405F62E42
S1130DF0FE01E3FC1591E3FE1191EF01ECCF01FF3D
S1130E0003C0F11003C0A7C0FF24FA94183619F0E8
S1130E101C3651F010C0FE01E3FC1591E3FE119164
S1130E20EF01183641F408600460FE01E3FC1591FB
S1130E30E3FE1191EF01112309F48DC0612F70E0DD
S1130E4088E690E00E94BE07892B09F484C000FD67
S1130E5007C0F50180809180C50102965C0102C043
S1130E60812C912C1E3651F4F6014681578160E0A5
S1130E7070E0202FC4010E94080573CF1336A9F433
S1130E8001FD02C0FF24F394C6010E94C90797FD27
S1130E9060C08114910429F0F4018083C401019697
S1130EA04C01FA94F110F0CF50C01B3559F49E0157
S1130EB0A4016F2DC6010E94E605EC01892B09F0FF
S1130EC044C03EC0C6010E943B0597FD42C01F3688
S1130ED061F128F4143639F1193651F128C0133769
S1130EE071F0153701F123C08114910429F0F40144
S1130EF06082C40101964C01FA94FF2071F0C6018E
S1130F000E94C9073C0197FD08C00E94B507892BC0
S1130F1059F3B601C3010E94070881149104A9F092
S1130F20F401108212C0006203C0006101C00064B9
S1130F30202FA4016F2DC6010E945405811105C004
S1130F40F6018381807329F406C000FD0ACF53940F
S1130F5008CF552019F0852D90E002C08FEF9FEF48
S1130F60CDB7DEB7EFE00C94420891110C94200841
S1130F70803219F089508550C8F70895FC01059016
S1130F80061621F00020D9F7C00108953197CF014A
S1130F900895CF93DF93EC012B8120FF33C026FF0C
S1130FA00AC02F7B2B838E819F8101969F838E8322
S1130FB08A8190E029C022FF0FC0E881F9818081F5
S1130FC0082E000C990B009719F420622B831AC089
S1130FD03196F983E8830EC0EA85FB85099597FF6E
S1130FE009C02B81019611F080E201C080E1822BBF
S1130FF08B8308C02E813F812F5F3F4F3F832E8319
S1131000992702C08FEF9FEFDF91CF910895FB01E5
S1131010238120FF12C026FD10C08F3F3FEF9307AE
S113102061F082832F7D20642383268137812150C0
S1131030310937832683992708958FEF9FEF089509
S11310409927882708952F923F924F925F926F922B
S11310507F928F929F92AF92BF92CF92DF92EF9244
S1131060FF920F931F93CF93DF93CDB7DEB7CA1BC5
S1131070DB0B0FB6F894DEBF0FBECDBF09942A88F0
S1131080398848885F846E847D848C849B84AA8498
S1131090B984C884DF80EE80FD800C811B81AA8125
S11310A0B981CE0FD11D0FB6F894DEBF0FBECDBFF0
S10B10B0ED010895F894FFCF4F
S11310B85345545F434F4C4F523D0025752C2575BD
S11310C82C257500436F6C6F722061637475616CB5
S11310D8697A61646F2E0D0A004552524F523A20C4
S11310E876616C6F72657320656E7472652030204A
S11310F879203235350D0A004552524F523A20664E
S11311086F726D61746F205345545F434F4C4F5257
S11311183D522C472C420D0A00436F6D616E646F7B
S1131128206E6F207265636F6E6F6369646F2E0D36
S10511380A00A7
S9030000FC
