S00B00005450342E7372656341
S11300000C943A000C9457000C9457000C9457002D
S11300100C9457000C9457000C9457000C94570000
S11300200C9457000C9457000C9457000C945700F0
S11300300C9457000C9457000C94F8010C9457003E
S11300400C9457000C9457000C9480030C94AC034C
S11300500C9457000C9457000C9457000C945700C0
S11300600C9457000C9457006364696E6F70737539
S113007078585B0011241FBECFEFD8E0DEBFCDBFA0
S113008011E0A0E0B1E0E2EBFFE002C005900D92C8
S1130090A238B107D9F722E0A2E8B1E001C01D926D
S11300A0AC33B207E1F70E94E8030C94D7070C9431
S11300B0000087B1877F87B988B1877F88B9ECE76B
S11300C0F0E0808183648083EAE7F0E080818768E0
S11300D080830895EAE7F0E08081806480838091E2
S11300E07A0084FFFCCFEAE7F0E0808180618083BE
S11300F0809178009091790008951092890110926E
S11301008801109287011092820108950F931F9322
S1130110CF93DF938091870190918801019690930A
S11301208801809387010E946A00AC0160E070E05E
S1130130DB01CA01880F991FAA1FBB1F840F951FDB
S1130140A61FB71FAC01BD01440F551F661F771FC3
S1130150440F551F661F771F8C019D01040F151F47
S1130160261F371FC901B801660F771F881F991F03
S11301702FEF33E040E050E00E9419048CE390E05C
S1130180BC01621B730B809189018130D9F030F07E
S11301908230B1F1833009F444C05FC0109282010F
S11301A0CB014E9720918701309188012817390798
S11301B008F453C081E08093890110928801109261
S11301C087014BC0C0918701D09188019E01AFEF98
S11301D0B0E00E943B042AE030E040E050E00E949E
S11301E01904209382012A97C0F18FEF8093820132
S11301F082E08093890110928801109287012DC0BA
S11302008FEF8093820180918701909188010A97F2
S113021020F183E080938901109288011092870174
S11302201CC0C0918701D09188019E01AFEFB0E05E
S11302300E943B042AE030E040E050E00E941904B0
S11302402095209382012A9740F010928201109207
S113025089011092880110928701DF91CF911F913B
S11302600F910895CF92DF92EF92FF920F931F9315
S11302700E941D0200918301109184012091850147
S1130280309186016B017C01C01AD10AE20AF30A9B
S113029048EEC41643E0D406E104F10450F0609340
S11302A083017093840180938501909386010E9459
S11302B086001F910F91FF90EF90DF90CF900895EB
S11302C080918201089580938F0108950E943E02D7
S11302D008950E943802089584B1806284B90E940E
S11302E026020E94EC0180E00E94630180E00E94EB
S11302F0660180E00E94690108950F931F930E9494
S11303001D0200918A0110918B0120918C01309182
S11303108D016017710782079307C1F060938A010A
S113032070938B0180938C0190938D0180918E0149
S11303308F5F80938E0190918F01891720F485B18E
S11303408F7D85B903C085B1806285B91F910F91F6
S113035008958093920160939101409390010895D0
S113036040E060E080E00E94A90108950F931F938C
S1130370CF93DF930E946001C82FD0E020919201B7
S11303802C9FC0012D9F900D11240FEF10E0B80198
S11303900E940504862F0E946301209191012C9FE5
S11303A0C0012D9F900D1124B8010E940504862FD1
S11303B00E946601209190012C9FC0012D9F900DF9
S11303C01124B8010E940504862F0E946901DF915F
S11303D0CF911F910F91089582E084BD83E085BD84
S11303E088E187BDEEE6F0E0808182608083089535
S11303F01F920F920FB60F9211248F939F93AF9376
S1130400BF938091930190919401A0919501B09133
S113041096010196A11DB11D8093930190939401BF
S1130420A0939501B0939601BF91AF919F918F9145
S11304300F900FBE0F901F901895609193017091CB
S113044094018091950190919601089584B18660FC
S113045084B981EF809380008BE0809381001092B7
S113046089001092880010928B0010928A000895DF
S113047090E09093890080938800089590E0909391
S11304808B0080938A000895FC01E05CFF4F10828A
S1130490319610820895FC01E05CFF4F2081319673
S11304A0908181E0291380E008950F931F93CF93E7
S11304B0DF93EC018B010E944B02811113C0FE01FA
S11304C0EF5BFF4F8081DE01A80FB11D8C91D80135
S11304D08C9380818F5F80838081803428F01082A8
S11304E081E003C080E001C081E0DF91CF911F91E2
S11304F00F9108959C01FC01E05CFF4F90819F5F88
S1130500903408F090E0F901EF5BFF4F208181E027
S1130510921380E008951F93CF93DF93EC01162F7D
S11305200E947A02811111C0FE01E05CFF4F8081BC
S1130530DE01A80FB11D1C9380818F5F80838081B1
S1130540803428F0108281E003C080E001C081E0A3
S1130550DF91CF911F9108951092970108950F9301
S11305601F93CF93DF9300D000D000D0CDB7DEB778
S1130570FC012081222309F44BC08C014AE050E0A5
S113058060E071E00E945E04892BF1F5CE010196D2
S11305909F938F9302969F938F9302969F938F932B
S11305A08BE091E09F938F93C8010A969F938F935A
S11305B00E946C040FB6F894DEBF0FBECDBF039744
S11305C0F1F48D819E818F3F910509F098F46B8140
S11305D07C816F3F710509F068F449815A814F3F6E
S11305E0510509F038F40E94A90184E191E00E94C8
S11305F073030EC089E291E00E94730309C088E48A
S113060091E00E94730304C089E691E00E947303A1
S113061026960FB6F894DEBF0FBECDBFDF91CF9103
S11306201F910F910895CF93DF931F92CDB7DEB73B
S113063029C089818A3011F08D30C1F480919701ED
S1130640E82FF0E0E856FE4F1082882361F088E935
S113065091E00E94730386E291E00E94730388E9AB
S113066091E00E94AF02109297010CC09091970103
S11306709F3140F4E92FF0E0E856FE4F80839F5FFE
S113068090939701CE0101960E9460038111D1CF0E
S11306900F90DF91CF9108951092C50087E6809363
S11306A0C40086E08093C20088E98093C10088EB8F
S11306B091E00E9444028AEF91E00E94440208956E
S11306C0BC0188EB91E00E9455020895682F8AEFDF
S11306D091E00E948B02882329F0E1ECF0E0808114
S11306E0806280830895CF93DF93EC0103C00E945E
S11306F06603219688818111FACFDF91CF91089505
S11307001F920F920FB60F9211242F933F934F9382
S11307105F936F937F938F939F93AF93BF93EF9365
S1130720FF936091C600683031F06F3721F088EB99
S113073091E00E948B02FF91EF91BF91AF919F9145
S11307408F917F916F915F914F913F912F910F9076
S11307500FBE0F901F9018951F920F920FB60F9215
S113076011242F933F934F935F936F937F938F93B2
S11307709F93AF93BF93EF93FF93CF93DF931F9216
S1130780CDB7DEB7BE016F5F7F4F8AEF91E00E9465
S11307905502882321F089818093C60005C0E1ECCD
S11307A0F0E080818F7D80830F90DF91CF91FF9166
S11307B0EF91BF91AF919F918F917F916F915F91D5
S11307C04F913F912F910F900FBE0F901F9018954E
S11307D00E947D000E9459000E946C010E944C03FB
S11307E00E94B0010E94AC0278940E9413030E94FC
S11307F032010E94B6010E947D0183B7816083BFEC
S1130800889583B78E7F83BFF0CF97FB072E16F4AE
S1130810009407D077FD09D00E944A0407FC05D054
S11308203EF4909581959F4F0895709561957F4F03
S11308300895A1E21A2EAA1BBB1BFD010DC0AA1F1D
S1130840BB1FEE1FFF1FA217B307E407F50720F035
S1130850A21BB30BE40BF50B661F771F881F991FB0
S11308601A9469F760957095809590959B01AC01F9
S1130870BD01CF010895A29FB001B39FC001A39F02
S1130880700D811D1124911DB29F700D811D1124C5
S1130890911D0895AA1BBB1B51E107C0AA1FBB1FD2
S11308A0A617B70710F0A61BB70B881F991F5A95F8
S11308B0A9F780959095BC01CD010895FB01DC0159
S11308C04150504030F08D910190801919F400206E
S11308D0B9F7881B990B0895AEE0B0E0E2E7F4E0C5
S11308E00C94B00785E08C838B899C899A838983D7
S11308F0AE01495E5F4F6D897E89CE0101960E94EB
S113090021062E96E2E00C94CC0720FD09C0FC01E0
S113091023FD05C022FF02C0738362835183408399
S1130920089544FD17C046FD17C0AB01BC01DA01B0
S1130930FB01AA0FBB1FEE1FFF1F1094D1F74A0F34
S11309405B1F6E1F7F1FCB01BA01660F771F881FC5
S1130950991F09C033E001C034E0660F771F881F78
S1130960991F3150D1F7620F711D811D911D08959A
S11309700F931F93CF93DF938C01C8010E94460706
S1130980EC0197FD08C00E943207892BB1F7B8012A
S1130990CE010E948407CE01DF91CF911F910F9168
S11309A008958F929F92AF92BF92EF92FF920F930E
S11309B01F93CF93DF938C01D62F7A01B22E0E941E
S11309C046079C0133272B32310531F02D32310596
S11309D061F48B2D8068B82ED15011F480E068C08A
S11309E0C8010E94460797FDF9CFCB2DCD7F2B2D53
S11309F0207309F58033F9F4AA24AA94AD0E09F4FE
S1130A0043C0C8010E94460797FD3EC09C012F7D4C
S1130A1033272835310549F4C264D250A9F1C801FD
S1130A200E94460797FF07C02FC0B6FE02C0C260EF
S1130A3001C0C261DA2D812C912C540120ED280FC4
S1130A40283080F0C4FF04C0B8010E94840719C094
S1130A502A3040F0C6FFF8CF2F7D3FEE320F3630FC
S1130A6098F727504C2FC501B4010E9491044B0103
S1130A705C01C260D15059F0C8010E94460797FF3B
S1130A80DDCFC1FD04C0AACF812C912C5401C7FF36
S1130A9008C0B094A09490948094811C911CA11CD3
S1130AA0B11C2C2FB501A401C7010E94850481E06B
S1130AB0DF91CF911F910F91FF90EF90BF90AF9076
S1130AC09F908F900895A0E2B0E0E9E6F5E00C94E1
S1130AD0A3075C01962E7A01F9018E010F5F1F4F67
S1130AE0680180E2D8011D928A95E9F7D501139631
S1130AF08C9080E090E0612C712C30E061E070E03B
S1130B0083FC259183FE21918F01522E211103C074
S1130B1080E090E092C02E3511F4009751F1432FFC
S1130B2050E0481759073CF42D3559F12D3219F48A
S1130B30772009F103C0772009F46AC0452D469552
S1130B4046954695D601A40FB11D452D47708B01DE
S1130B5002C0000F111F4A95E2F7A8015C91452BD2
S1130B604C93651459F0561410F45394E7CF5A94E7
S1130B70E5CF31E004C07724739401C0712C019651
S1130B80BFCF772019F08E8180628E83311103C02C
S1130B908824839417C0F6019E012F5D3F4F808106
S1130BA0809581932E173F07D1F7F2CFE114F1041A
S1130BB029F0D7018C93F70131967F019A94812C07
S1130BC09920F9F0C5010E94460797FD18C0FC0161
S1130BD0FF2723E0F595E7952A95E1F7EC0DFD1D38
S1130BE0208130E0AC014770552702C03595279528
S1130BF04A95E2F720FDDACFB5010E9484078110FF
S1130C0087CFE114F10411F0D7011C92C80115C07B
S1130C10422F469546954695D601A40FB11D422F05
S1130C2047708B0102C0000F111F4A95E2F7A8011B
S1130C305C91452B4C93622EA2CFA096EFE00C94CE
S1130C40BF07A0E0B0E0E7E2F6E00C94A3076C0174
S1130C50EB015A01FC0117821682512CF601E38044
S1130C60FE01E3FC8591E3FE8191182FEF018823B7
S1130C7009F4EEC090E00E943207892B21F0C601EE
S1130C800E94B804EBCF153241F4FE01E3FC159148
S1130C90E3FE1191EF01153281F4C6010E9446076B
S1130CA097FDD4C0412F50E09C013327241735070A
S1130CB0A9F2B6010E948407CBC01A3239F4E3FCCE
S1130CC01591E3FE1191EF0101E001C000E0F12C68
S1130CD020ED210F2A3080F402606F2D70E080E057
S1130CE090E040E20E949104F62EFE01E3FC15918F
S1130CF0E3FE1191EF01ECCF01FF03C0F11003C03B
S1130D00A7C0FF24FA94183619F01C3651F010C00D
S1130D10FE01E3FC1591E3FE1191EF01183641F455
S1130D2008600460FE01E3FC1591E3FE1191EF01FC
S1130D30112309F48DC0612F70E088E690E00E94D1
S1130D403B07892B09F484C000FD07C0F5018080AE
S1130D509180C50102965C0102C0812C912C1E3643
S1130D6051F4F6014681578160E070E0202FC40100
S1130D700E94850473CF1336A9F401FD02C0FF2439
S1130D80F394C6010E94460797FD60C08114910444
S1130D9029F0F4018083C40101964C01FA94F11006
S1130DA0F0CF50C01B3559F49E01A4016F2DC6012C
S1130DB00E946305EC01892B09F044C03EC0C601C2
S1130DC00E94B80497FD42C01F3661F128F414361E
S1130DD039F1193651F128C0133771F0153701F183
S1130DE023C08114910429F0F4016082C4010196A6
S1130DF04C01FA94FF2071F0C6010E9446073C01A1
S1130E0097FD08C00E943207892B59F3B601C3012C
S1130E100E94840781149104A9F0F401108212C085
S1130E20006203C0006101C00064202FA4016F2D83
S1130E30C6010E94D104811105C0F601838180732B
S1130E4029F406C000FD0ACF539408CF552019F0A9
S1130E50852D90E002C08FEF9FEFCDB7DEB7EFE0B6
S1130E600C94BF0791110C949D07803219F089509E
S1130E708550C8F70895FC010590061621F000205E
S1130E80D9F7C00108953197CF010895CF93DF9327
S1130E90EC012B8120FF33C026FF0AC02F7B2B835C
S1130EA08E819F8101969F838E838A8190E029C0E1
S1130EB022FF0FC0E881F9818081082E000C990B74
S1130EC0009719F420622B831AC03196F983E883C2
S1130ED00EC0EA85FB85099597FF09C02B81019611
S1130EE011F080E201C080E1822B8B8308C02E8147
S1130EF03F812F5F3F4F3F832E83992702C08FEF9F
S1130F009FEFDF91CF910895FB01238120FF12C051
S1130F1026FD10C08F3F3FEF930761F082832F7D42
S1130F202064238326813781215031093783268326
S1130F30992708958FEF9FEF08959927882708959B
S1130F402F923F924F925F926F927F928F929F92D5
S1130F50AF92BF92CF92DF92EF92FF920F931F93C3
S1130F60CF93DF93CDB7DEB7CA1BDB0B0FB6F89474
S1130F70DEBF0FBECDBF09942A88398848885F84B4
S1130F806E847D848C849B84AA84B984C884DF8025
S1130F90EE80FD800C811B81AA81B981CE0FD11D09
S1130FA00FB6F894DEBF0FBECDBFED010895F894DF
S1050FB0FFCF6D
S1130FB25345545F434F4C4F523D0025752C2575C4
S1130FC22C257500436F6C6F722061637475616CBC
S1130FD2697A61646F2E0D0A004552524F523A20CB
S1130FE276616C6F72657320656E74726520302051
S1130FF279203235350D0A004552524F523A206655
S11310026F726D61746F205345545F434F4C4F525E
S11310123D522C472C420D0A00436F6D616E646F82
S1131022206E6F207265636F6E6F6369646F2E0D3D
S10510320A00AE
S9030000FC
