:100000000C943A000C9457000C9457000C94570031
:100010000C9457000C9457000C9457000C94570004
:100020000C9457000C9457000C9457000C945700F4
:100030000C9457000C9457000C94A6000C94570095
:100040000C9457000C9457000C9429020C94550200
:100050000C9457000C9457000C9457000C945700C4
:100060000C9457000C9457006364696E6F7073753D
:1000700078585B0011241FBECFEFD8E0DEBFCDBFA4
:1000800011E0A0E0B1E0E6E4FCE002C005900D92D2
:10009000A638B107D9F722E0A6E8B1E001C01D9269
:1000A000A733B207E1F70E9491020C9421060C9449
:1000B000000087B1877F87B988B1877F88B9ECE76F
:1000C000F0E0808183648083EAE7F0E080818768E4
:1000D00080830895109289011092880110928701FF
:1000E00010928601089580938A0108950E94E3008A
:1000F00008950E94DD00089584B1806284B90E9451
:10010000CB000E949A0080E00E94730080E00E9471
:10011000760080E00E947900089580938D016093BD
:100120008C0140938B01089540E060E080E00E94E4
:100130008D00089582E084BD83E085BD88E187BDA0
:10014000EEE6F0E080818260808308951F920F9236
:100150000FB60F9211248F939F93AF93BF9380910B
:100160008E0190918F01A0919001B0919101019623
:10017000A11DB11D80938E0190938F01A0939001DA
:10018000B0939101BF91AF919F918F910F900FBE4E
:100190000F901F90189584B1866084B981EA80938E
:1001A00080008BE08093810010928900109288007B
:1001B00010928B0010928A00089590E0909389002D
:1001C00080938800089590E090938B0080938A003C
:1001D0000895FC01E05CFF4F108231961082089573
:1001E000FC01E05CFF4F20813196908181E0291372
:1001F00080E008950F931F93CF93DF93EC018B0161
:100200000E94F000811113C0FE01EF5BFF4F80815F
:10021000DE01A80FB11D8C91D8018C9380818F5F76
:1002200080838081803428F0108281E003C080E0E8
:1002300001C081E0DF91CF911F910F9108959C0142
:10024000FC01E05CFF4F90819F5F903408F090E0EC
:10025000F901EF5BFF4F208181E0921380E0089568
:100260001F93CF93DF93EC01162F0E941F01811182
:1002700011C0FE01E05CFF4F8081DE01A80FB11DBF
:100280001C9380818F5F80838081803428F010826E
:1002900081E003C080E001C081E0DF91CF911F9138
:1002A00008951092920108950F931F93CF93DF93B7
:1002B00000D000D000D0CDB7DEB7FC0120812223D2
:1002C00009F44FC08C014AE050E060E071E00E9408
:1002D000A802892B09F041C0CE0101969F938F930C
:1002E00002969F938F9302969F938F938BE091E05A
:1002F0009F938F93C8010A969F938F930E94B60293
:100300000FB6F894DEBF0FBECDBF039709F58D8100
:100310009E818F3F910509F0B0F46B817C816F3F26
:10032000710509F080F449815A814F3F510509F068
:1003300050F45527772790E00E948D0087E191E0E7
:100340000E941C020EC08CE291E00E941C0209C0B7
:100350008BE491E00E941C0204C08CE691E00E94B4
:100360001C0226960FB6F894DEBF0FBECDBFDF91FC
:10037000CF911F910F910895CF93DF931F92CDB727
:10038000DEB729C089818A3011F08D30C1F48091A7
:100390009201E82FF0E0ED56FE4F1082882361F0C5
:1003A00083E991E00E941C0289E291E00E941C0214
:1003B00083E991E00E945401109292010CC0909147
:1003C00092019F3140F4E92FF0E0ED56FE4F80831B
:1003D0009F5F90939201CE0101960E9409028111C4
:1003E000D1CF0F90DF91CF9108951092C50087E68D
:1003F0008093C40086E08093C20088E98093C100A6
:1004000083EB91E00E94E90085EF91E00E94E90012
:100410000895BC0183EB91E00E94FA000895682FD3
:1004200085EF91E00E943001882329F0E1ECF0E0B3
:100430008081806280830895CF93DF93EC0103C0B5
:100440000E940F02219688818111FACFDF91CF910E
:1004500008951F920F920FB60F9211242F933F937E
:100460004F935F936F937F938F939F93AF93BF93BC
:10047000EF93FF936091C600683031F06F3721F041
:1004800083EB91E00E943001FF91EF91BF91AF911A
:100490009F918F917F916F915F914F913F912F919C
:1004A0000F900FBE0F901F9018951F920F920FB6CE
:1004B0000F9211242F933F934F935F936F937F93EA
:1004C0008F939F93AF93BF93EF93FF93CF93DF935C
:1004D0001F92CDB7DEB7BE016F5F7F4F85EF91E012
:1004E0000E94FA00882321F089818093C60005C00C
:1004F000E1ECF0E080818F7D80830F90DF91CF91E0
:10050000FF91EF91BF91AF919F918F917F916F91EB
:100510005F914F913F912F910F900FBE0F901F90C1
:1005200018950E946A000E9459000E947C000E9457
:10053000F5010E9494000E94510178940E94BC0130
:1005400083B7816083BF889583B78E7F83BFF6CFE3
:10055000FB01DC014150504030F08D910190801939
:1005600019F40020B9F7881B990B0895AEE0B0E0AC
:10057000ECEBF2E00C94FA0585E08C838B899C8986
:100580009A838983AE01495E5F4F6D897E89CE0172
:1005900001960E946B042E96E2E00C94160620FD54
:1005A00009C0FC0123FD05C022FF02C073836283E2
:1005B00051834083089544FD17C046FD17C0AB0129
:1005C000BC01DA01FB01AA0FBB1FEE1FFF1F109435
:1005D000D1F74A0F5B1F6E1F7F1FCB01BA01660F59
:1005E000771F881F991F09C033E001C034E0660FF0
:1005F000771F881F991F3150D1F7620F711D811D20
:10060000911D08950F931F93CF93DF938C01C80121
:100610000E949005EC0197FD08C00E947C05892B83
:10062000B1F7B801CE010E94CE05CE01DF91CF9186
:100630001F910F9108958F929F92AF92BF92EF9268
:10064000FF920F931F93CF93DF938C01D62F7A01E4
:10065000B22E0E9490059C0133272B32310531F0D8
:100660002D32310561F48B2D8068B82ED15011F4F4
:1006700080E068C0C8010E94900597FDF9CFCB2D9E
:10068000CD7F2B2D207309F58033F9F4AA24AA9489
:10069000AD0E09F443C0C8010E94900597FD3EC00D
:1006A0009C012F7D33272835310549F4C264D2508F
:1006B000A9F1C8010E94900597FF07C02FC0B6FEA0
:1006C00002C0C26001C0C261DA2D812C912C54019C
:1006D00020ED280F283080F0C4FF04C0B8010E942C
:1006E000CE0519C02A3040F0C6FFF8CF2F7D3FEE6F
:1006F000320F363098F727504C2FC501B4010E94B5
:10070000DB024B015C01C260D15059F0C8010E946C
:10071000900597FFDDCFC1FD04C0AACF812C912C9D
:100720005401C7FF08C0B094A09490948094811C99
:10073000911CA11CB11C2C2FB501A401C7010E9462
:10074000CF0281E0DF91CF911F910F91FF90EF9049
:10075000BF90AF909F908F900895A0E2B0E0E3EB40
:10076000F3E00C94ED055C01962E7A01F9018E01FF
:100770000F5F1F4F680180E2D8011D928A95E9F74B
:10078000D50113968C9080E090E0612C712C30E0C4
:1007900061E070E083FC259183FE21918F01522E50
:1007A000211103C080E090E092C02E3511F4009733
:1007B00051F1432F50E0481759073CF42D3559F1BA
:1007C0002D3219F4772009F103C0772009F46AC0AB
:1007D000452D469546954695D601A40FB11D452D4C
:1007E00047708B0102C0000F111F4A95E2F7A80164
:1007F0005C91452B4C93651459F0561410F45394A6
:10080000E7CF5A94E5CF31E004C07724739401C058
:10081000712C0196BFCF772019F08E8180628E8374
:10082000311103C08824839417C0F6019E012F5D07
:100830003F4F8081809581932E173F07D1F7F2CFEC
:10084000E114F10429F0D7018C93F70131967F016F
:100850009A94812C9920F9F0C5010E94900597FD8A
:1008600018C0FC01FF2723E0F595E7952A95E1F7ED
:10087000EC0DFD1D208130E0AC014770552702C012
:10088000359527954A95E2F720FDDACFB5010E940C
:10089000CE05811087CFE114F10411F0D7011C922D
:1008A000C80115C0422F469546954695D601A40F1E
:1008B000B11D422F47708B0102C0000F111F4A95D6
:1008C000E2F7A8015C91452B4C93622EA2CFA09633
:1008D000EFE00C940906A0E0B0E0E1E7F4E00C944E
:1008E000ED056C01EB015A01FC0117821682512CB7
:1008F000F601E380FE01E3FC8591E3FE8191182F70
:10090000EF01882309F4EEC090E00E947C05892B5A
:1009100021F0C6010E940203EBCF153241F4FE0123
:10092000E3FC1591E3FE1191EF01153281F4C6014C
:100930000E94900597FDD4C0412F50E09C013327C1
:1009400024173507A9F2B6010E94CE05CBC01A3292
:1009500039F4E3FC1591E3FE1191EF0101E001C0D0
:1009600000E0F12C20ED210F2A3080F402606F2D81
:1009700070E080E090E040E20E94DB02F62EFE0193
:10098000E3FC1591E3FE1191EF01ECCF01FF03C0F1
:10099000F11003C0A7C0FF24FA94183619F01C36D2
:1009A00051F010C0FE01E3FC1591E3FE1191EF013F
:1009B000183641F408600460FE01E3FC1591E3FE83
:1009C0001191EF01112309F48DC0612F70E088E6C9
:1009D00090E00E948505892B09F484C000FD07C0C2
:1009E000F50180809180C50102965C0102C0812CD6
:1009F000912C1E3651F4F6014681578160E070E07B
:100A0000202FC4010E94CF0273CF1336A9F401FD39
:100A100002C0FF24F394C6010E94900597FD60C0B8
:100A20008114910429F0F4018083C40101964C01E2
:100A3000FA94F110F0CF50C01B3559F49E01A40177
:100A40006F2DC6010E94AD03EC01892B09F044C053
:100A50003EC0C6010E94020397FD42C01F3661F1ED
:100A600028F4143639F1193651F128C0133771F0D2
:100A7000153701F123C08114910429F0F40160823B
:100A8000C40101964C01FA94FF2071F0C6010E9446
:100A900090053C0197FD08C00E947C05892B59F305
:100AA000B601C3010E94CE0581149104A9F0F4019E
:100AB000108212C0006203C0006101C00064202FD8
:100AC000A4016F2DC6010E941B03811105C0F60110
:100AD0008381807329F406C000FD0ACF539408CFA8
:100AE000552019F0852D90E002C08FEF9FEFCDB714
:100AF000DEB7EFE00C94090691110C94E705803203
:100B000019F089508550C8F70895FC010590061624
:100B100021F00020D9F7C00108953197CF01089541
:100B2000CF93DF93EC012B8120FF33C026FF0AC057
:100B30002F7B2B838E819F8101969F838E838A8159
:100B400090E029C022FF0FC0E881F9818081082E42
:100B5000000C990B009719F420622B831AC0319670
:100B6000F983E8830EC0EA85FB85099597FF09C0E4
:100B70002B81019611F080E201C080E1822B8B83F2
:100B800008C02E813F812F5F3F4F3F832E839927DF
:100B900002C08FEF9FEFDF91CF910895FB0123817A
:100BA00020FF12C026FD10C08F3F3FEF930761F07A
:100BB00082832F7D20642383268137812150310950
:100BC00037832683992708958FEF9FEF08959927FC
:100BD000882708952F923F924F925F926F927F9253
:100BE0008F929F92AF92BF92CF92DF92EF92FF923D
:100BF0000F931F93CF93DF93CDB7DEB7CA1BDB0BE9
:100C00000FB6F894DEBF0FBECDBF09942A8839888D
:100C100048885F846E847D848C849B84AA84B98494
:100C2000C884DF80EE80FD800C811B81AA81B981A0
:100C3000CE0FD11D0FB6F894DEBF0FBECDBFED01B4
:060C40000895F894FFCFB7
:100C46005345545F434F4C4F523D002568752C2544
:100C560068752C25687500436F6C6F72206163742C
:100C660075616C697A61646F2E0D0A004552524FA8
:100C7600523A2076616C6F72657320656E74726588
:100C860020302079203235350D0A004552524F5218
:100C96003A20666F726D61746F205345545F434FFF
:100CA6004C4F523D522C472C420D0A00436F6D614A
:100CB6006E646F206E6F207265636F6E6F6369641A
:060CC6006F2E0D0A000074
:00000001FF
