S00B00005470332E7372656322
S11300000C9434000C9451000C9451000C94510045
S11300100C9451000C9451000C9451000C94510018
S11300200C9451000C9451000C9451000C944C030A
S11300300C9451000C9451000C9451000C945100F8
S11300400C9451000C9451000C9497030C94C90324
S11300500C9451000C9451000C9451000C945100D8
S11300600C9451000C94510011241FBECFEFD8E022
S1130070DEBFCDBF12E0A0E0B1E0E2E3F0E102C0F8
S113008005900D92A635B107D9F723E0A6E5B2E0B5
S113009001C01D92A130B207E1F70E94B2040C9492
S11300A017080C940000109256020895EF92FF92E4
S11300B00F931F93CF93DF93CDB7DEB7A0970FB6FF
S11300C0F894DEBF0FBECDBFFC012081222309F4CA
S11300D07AC08C0147E050E060E071E00E94E704E0
S11300E0892B39F5C80107960E94C9048C0102972F
S11300F0CB97D0F4C8010E942B011F930F9388E083
S113010091E09F938F938E010F5F1F4F1F930F9367
S11301100E942D05C8010E948A030F900F900F9032
S11301200F900F900F904FC081E291E00E948A03DC
S11301304AC049E050E060E471E0C8010E94E7046D
S1130140892BE9F5D8011996FD0101900020E9F702
S11301503197EA1BFB0B389739F4F80183858A330E
S113016019F486858A3329F08AE491E00E948A038F
S11301702AC0CD010E94C904F82E8983C8010C96B7
S11301800E94C904E82E8A83C8010F960E94C904FC
S11301908B83F7E1FF1528F09BE39E1510F08C3359
S11301A028F088E691E00E948A030DC0CE010196F2
S11301B00E94E8028BE791E00E948A0304C08EE863
S11301C091E00E948A03A0960FB6F894DEBF0FBE9A
S11301D0CDBFDF91CF911F910F91FF90EF900895C4
S11301E0CF93DF931F92CDB7DEB71EC089818A30CB
S11301F011F08D3069F4E0915602F0E0E95AFD4FB8
S1130200108287E592E00E945600109256020CC0BC
S1130210909156029F3140F4E92FF0E0E95AFD4FE6
S113022080839F5F90935602CE0101960E947703CC
S11302308111DCCF0F90DF91CF91089584E690E097
S113024090937A02809379020E94450390937802F6
S11302508093770208959C01225031092B33310594
S113026078F49C01220F331F880F991F880F991F60
S1130270880F991F820F931F90937A0280937902BB
S11302800895FF920F931F93CF93DF93CDB7DEB7FB
S1130290CE54D1090FB6F894DEBF0FBECDBF0E9475
S11302A045032091770230917802AC01421B530B35
S11302B02091790230917A024217530708F467C0FB
S11302C0909378028093770287EA91E00E948A03F0
S11302D08AE02B968FAF2B978EE12C968FAF2C97BD
S11302E02D961FAE2D97CE01865B9F4F0E94E8028C
S11302F0CE01895B9F4F0E940703CE01835B9F4F12
S11303000E943C0228968FAD28970E942304F82E61
S11303102E966FAD2E97482F2F968FAD2F970E9454
S11303202A04182F01E0811101C000E02E962FADA0
S11303302E972F964FAD2F97BE01695B7F4FCE014D
S113034001960E944404CE0101960E948A038BE820
S113035091E00E948A031123D1F0113021F42F96E9
S11303604FAD2F9703C02E964FAD2E970F2D212FF3
S1130370BE01695B7F4FCE0101960E947104CE01DC
S113038001960E948A038BE891E00E948A03C25B73
S1130390DF4F0FB6F894DEBF0FBECDBFDF91CF9114
S11303A01F910F91FF900895FC01E05CFF4F1082B4
S11303B0319610820895FC01E05CFF4F2081319654
S11303C0908181E0291380E008950F931F93CF93C8
S11303D0DF93EC018B010E94DB01811113C0FE014C
S11303E0EF5BFF4F8081DE01A80FB11D8C91D80116
S11303F08C9380818F5F80838081803428F0108289
S113040081E003C080E001C081E0DF91CF911F91C2
S11304100F9108959C01FC01E05CFF4F90819F5F68
S1130420903408F090E0F901EF5BFF4F208181E008
S1130430921380E008951F93CF93DF93EC01162F5E
S11304400E940A02811111C0FE01E05CFF4F80810D
S1130450DE01A80FB11D1C9380818F5F8083808192
S1130460803428F0108281E003C080E001C081E084
S1130470DF91CF911F910895CF93DF9300D000D0E7
S11304801F92CDB7DEB7DC019E012F5F3F4F85E0A1
S1130490F90111928A95E9F787B1816087B988B12A
S11304A08E7F88B983E991E10197F1F700C00000DC
S11304B098B1916098B997B19E7F97B99AE09A954F
S11304C0F1F7309949C0EAE1EA95F1F700C0309BB1
S11304D045C0FAE1FA95F1F700C0F89450E023C062
S11304E0309BFECF8DE08A95F1F70000252F30E098
S11304F0E1E0F0E0EC0FFD1FE20FF31F9081990F94
S11305009083309B08C0E1E0F0E0EC0FFD1FE20FA8
S1130510F31F916090833099FECF4F5F01C040E09C
S11305204830F0F25F5F5530D0F378942D8130E09D
S113053059818A8190E0850F911D4B81840F911D13
S11305406C81860F911D99272817390749F45C930C
S113055011964C9380E005C081E003C081E001C0A6
S113056082E00F900F900F900F900F90DF91CF913A
S113057008951092B90088E48093B80084E08093D1
S1130580BC00089584EA8093BC008091BC00882359
S1130590E4F7089584E98093BC0008958093BB0038
S11305A084E88093BC008091BC008823E4F708951C
S11305B0811104C084EC8093BC0003C084E8809360
S11305C0BC008091BC008823E4F78091BB000895AF
S11305D0CF93DF93EC010E94C20280ED0E94CE0211
S11305E080E00E94CE028A810E9405040E94CE020D
S11305F089810E9405040E94CE0288810E9405041C
S11306000E94CE020E94CA02DF91CF910895CF9337
S1130610DF93EC010E94C20280ED0E94CE0280E0D2
S11306200E94CE020E94CA020E94C20281ED0E9470
S1130630CE0280E00E94D8020E9418048A8380E0DF
S11306400E94D8020E941804898381E00E94D80283
S11306500E94180488830E94CA02DF91CF910895F2
S113066010928000E1E8F0E088E0808389E698E178
S11306709093890080938800808184608083EFE672
S1130680F0E08081826080830895F89480917B02F9
S113069090917C02789408951F920F920FB60F9256
S11306A011248F939F9380917B0290917C020196F9
S11306B090937C0280937B029F918F910F900FBE49
S11306C00F901F9018951092C50087E68093C40080
S11306D086E08093C20088E98093C1008DE792E0B0
S11306E00E94D4018FEB92E00E94D4010895BC01D2
S11306F08DE792E00E94E5010895682F8FEB92E068
S11307000E941B02882329F0E1ECF0E080818062E2
S113071080830895CF93DF93EC0103C00E947D038F
S1130720219688818111FACFDF91CF9108951F928C
S11307300F920FB60F9211242F933F934F935F9311
S11307406F937F938F939F93AF93BF93CF93EF93C5
S1130750FF93C091C600C83051F0CF3741F06C2FE1
S11307608DE792E00E941B028C2F0E947D03FF9173
S1130770EF91CF91BF91AF919F918F917F916F91A5
S11307805F914F913F912F910F900FBE0F901F904B
S113079018951F920F920FB60F9211242F933F9327
S11307A04F935F936F937F938F939F93AF93BF9375
S11307B0EF93FF93CF93DF931F92CDB7DEB7BE01C4
S11307C06F5F7F4F8FEB92E00E94E501882321F059
S11307D089818093C60005C0E1ECF0E080818F7DC3
S11307E080830F90DF91CF91FF91EF91BF91AF91F3
S11307F09F918F917F916F915F914F913F912F9135
S11308000F900FBE0F901F9018959DEC899F912D0E
S1130810112496959695969520E1929FA001112416
S1130820990F292F220F220F920F891B842B0895D1
S1130830982F92959F70990F292F220F220F920FB4
S11308408F70890F089599EF980F81E09C3008F01C
S113085080E00895442341F084518B3068F462535E
S1130860653160F480E008958F50883048F46C530B
S1130870653140F480E0089581E0089582E00895B0
S113088081E0089582E008950F93FB01011103C0F4
S113089060EC71E002C067EC71E0A28151813081AB
S11308A07F936F931F922F931F924F931F92AF9337
S11308B01F925F931F923F932EEC31E03F932F934F
S11308C01F9226E42F939F938F930E94FD048DB76C
S11308D09EB742960FB6F8949EBF0FBE8DBF0F9180
S11308E008950F93CF93DF93FB01213019F466EF42
S11308F071E002C062E072E0002319F0AAE0B2E005
S113090002C0A1E1B2E0213019F42AE132E002C0D0
S11309102CE132E0D281C18150813F932F931F9209
S11309204F93BF93AF937F936F931F92DF931F9265
S1130930CF931F925F932EE132E03F932F931F9248
S113094026E42F939F938F930E94FD048DB79EB747
S113095044960FB6F8949EBF0FBE8DBFDF91CF9122
S11309600F9108950E9463030E94B9020E9430030C
S11309700E941E010E94530078940E94F0000E947D
S1130980410183B7816083BF889583B78E7F83BF1E
S1130990F4CFFC0188279927E89421912032E9F3C8
S11309A0293010F02E30C8F32B3241F02D3239F4B7
S11309B0689404C00E94F504820F911D2191205374
S11309C02A30C0F31EF4909581959F4F0895FB0142
S11309D0DC014150504030F08D910190801919F4A0
S11309E00020B9F7881B990B08957AE0979F902D02
S11309F0879F802D910D11240895AEE0B0E0E3E0CF
S1130A00F5E00C94EE070D891E898F89988D26E0F8
S1130A102C831A83098397FF02C080E090E8019732
S1130A209E838D83AE01455E5F4F698D7A8DCE01C5
S1130A3001960E944F054D815E8157FD0AC02F81AA
S1130A403885421753070CF49A01F801E20FF31F9B
S1130A5010822E96E4E00C940A08AEE0B0E0E3E3E2
S1130A60F5E00C94EE070D891E8986E08C831A83C9
S1130A7009838FEF9FE79E838D83AE01475E5F4FAF
S1130A806F89788DCE0101960E944F05EF81F8851C
S1130A90E00FF11F10822E96E4E00C940A08ABE0FC
S1130AA0B0E0E5E5F5E00C94E0076C017B018A0118
S1130AB0FC0117821682838181FFCCC1CE0101968D
S1130AC03C01F6019381F70193FD859193FF819198
S1130AD07F01882309F4BAC1853239F493FD8591E5
S1130AE093FF81917F01853229F4B60190E00E9441
S1130AF04607E7CF912C212C312CFFE1F315D8F0D8
S1130B008B3279F038F4803279F08332A1F4232DDA
S1130B1020611DC08D3261F0803369F4232D216082
S1130B2016C0832D8260382EE32DE4603E2E2AC049
S1130B30F32DF8601DC037FC2DC020ED280F2A309E
S1130B4040F08E32B9F436FC81C1232D2064322E5C
S1130B5019C036FE06C08AE0989E200D1124922EFC
S1130B6011C0EAE02E9E200D1124222EF32DF062F6
S1130B703F2E08C08C3621F4832D8068382E02C0A5
S1130B80883641F4F70193FD859193FF81917F01AC
S1130B908111B3CF982F9F7D9554933028F40C5F27
S1130BA01F4F9FE399830DC0833631F0833771F073
S1130BB0833509F059C021C0F801808189830E5F13
S1130BC01F4F88248394912C530113C02801F2E011
S1130BD04F0E511CF801A080B18036FE03C0692D70
S1130BE070E002C06FEF7FEFC5010E943B074C012C
S1130BF08201F32DFF773F2E16C0280122E0420E1A
S1130C00511CF801A080B18036FE03C0692D70E04C
S1130C1002C06FEF7FEFC5010E9430074C01F32D36
S1130C20F0683F2E820133FC1BC0822D90E08816B1
S1130C309906B0F4B60180E290E00E9446072A9437
S1130C40F4CFF50137FC859137FE81915F01B60140
S1130C5090E00E94460721102A9421E0821A91080C
S1130C608114910471F7E8C0843611F0893641F596
S1130C70F80137FE07C060817181828193810C5F26
S1130C801F4F08C060817181072E000C880B990BDF
S1130C900E5F1F4FF32DFF763F2E97FF09C09095EF
S1130CA08095709561957F4F8F4F9F4FF0683F2ED1
S1130CB02AE030E0A3010E948207882E861845C0EE
S1130CC0853731F4232D2F7EB22E2AE030E025C063
S1130CD0932D997FB92E8F36C1F018F4883579F0A9
S1130CE0B5C0803719F0883721F0B0C0E92FE06132
S1130CF0BE2EB4FE0DC0FB2DF460BF2E09C034FE21
S1130D000AC0292F2660B22E06C028E030E005C0B4
S1130D1020E130E002C020E132E0F801B7FE07C074
S1130D2060817181828193810C5F1F4F06C0608155
S1130D30718180E090E00E5F1F4FA3010E94820743
S1130D40882E8618FB2DFF773F2E36FE0DC0232DEF
S1130D502E7FA22E891458F434FE0BC032FC09C035
S1130D60832D8E7EA82E05C0B82CA32C03C0B82CCE
S1130D7001C0B92CA4FE0FC0FE01E80DF11D808155
S1130D80803321F49A2D997EA92E09C0A2FE06C0B3
S1130D90B394B39404C08A2D867809F0B394A3FC69
S1130DA011C0A0FE06C0B21488F4280C922C9B1823
S1130DB00EC0B21460F4B60180E290E00E944607CF
S1130DC0B394F7CFB21418F42B1802C0982C212C2A
S1130DD0A4FE10C0B60180E390E00E944607A2FE84
S1130DE017C0A1FC03C088E790E002C088E590E04A
S1130DF0B6010CC08A2D867859F0A1FE02C08BE2A0
S1130E0001C080E2A7FC8DE2B60190E00E94460793
S1130E10891438F4B60180E390E00E9446079A945E
S1130E20F7CF8A94F301E80DF11D8081B60190E0BB
S1130E300E9446078110F5CF222009F442CEB60164
S1130E4080E290E00E9446072A94F6CFF60186815C
S1130E50978102C08FEF9FEF2B96E2E10C94FC0781
S1130E60FC010590615070400110D8F78095909571
S1130E708E0F9F1F0895FC01615070400190011076
S1130E80D8F7809590958E0F9F1F08950F931F9309
S1130E90CF93DF93FB01238121FD03C08FEF9FEFED
S1130EA02CC022FF16C04681578124813581421708
S1130EB0530744F4A081B1819D012F5F3F4F3183DB
S1130EC020838C93268137812F5F3F4F378326837E
S1130ED014C08B01EC01FB010084F185E02D099520
S1130EE0892BE1F6D80116968D919C91179701965E
S1130EF017969C938E931697CE01DF91CF911F91F5
S1130F000F910895FA01AA27283051F1203181F177
S1130F10E8946F936E7F6E5F7F4F8F4F9F4FAF4FFD
S1130F20B1E03ED0B4E03CD0670F781F891F9A1F10
S1130F30A11D680F791F8A1F911DA11D6A0F711DC4
S1130F40811D911DA11D20D009F468943F912AE0D0
S1130F50269F11243019305D3193DEF6CF010895B8
S1130F60462F4770405D4193B3E00FD0C9F7F6CFE9
S1130F70462F4F70405D4A3318F0495D31FD4052B1
S1130F80419302D0A9F7EACFB4E0A6959795879547
S1130F9077956795BA95C9F7009761057105089526
S1130FA09B01AC010A2E06945795479537952795D2
S1130FB0BA95C9F7620F731F841F951FA01D08956A
S1130FC02F923F924F925F926F927F928F929F9255
S1130FD0AF92BF92CF92DF92EF92FF920F931F9343
S1130FE0CF93DF93CDB7DEB7CA1BDB0B0FB6F894F4
S1130FF0DEBF0FBECDBF09942A88398848885F8434
S11310006E847D848C849B84AA84B984C884DF80A4
S1131010EE80FD800C811B81AA81B981CE0FD11D88
S11310200FB6F894DEBF0FBECDBFED010895F8945E
S1051030FFCFEC
S11310325345545F544D3D005461736120646520EF
S11310426D7565737472656F3A20256420730D0A99
S1131052004552524F5220454E204C412054415398
S113106241204445204D5545535452454F0D0A00E5
S11310725345545F54494D453D004552524F522009
S1131082454E20454C20464F524D41544F20444535
S113109220484F52410D0A004552524F5220454EAC
S11310A2204C4120484F52410D0A00486F72612082
S11310B26D6F64696669636164612E0D0A00436F32
S11310C26D616E646F206E6F207265636F6E6F6305
S11310D269646F2E0D0A005265706F727465206424
S11310E26520696E7665726E616465726F0D0A00C1
S11310F24E4F524D414C00414C45525441005B25E8
S11311023032753A253032753A253032755D543AAB
S11311122575B0437C483A257525257C4573746151
S1131122646F3A25730054656D70657261747572EB
S1131132610048756D6564616400646975726E6FFF
S1131142006E6F637475726E6F00430025005B411D
S11311524C455254415D5B253032753A2530327527
S11311623A253032755D2573206675657261206497
S1131172652072616E676F2025732156616C6F72F0
S10911823A2575257300F7
S9030000FC
