:100000000C9434000C9451000C9451000C94510049
:100010000C9451000C9451000C9451000C9451001C
:100020000C9451000C9451000C9451000C947103E9
:100030000C9451000C9451000C9451000C945100FC
:100040000C9451000C9451000C94BC030C94EE03DE
:100050000C9451000C9451000C9451000C945100DC
:100060000C9451000C94510011241FBECFEFD8E026
:10007000DEBFCDBF12E0A0E0B1E0ECE7F0E102C0EE
:1000800005900D92A239B107D9F723E0A2E9B2E0B9
:1000900001C01D92AD3BB207E1F70E94D7040C945A
:1000A0003C080C940000109292020895EF92FF9287
:1000B0000F931F93CF93DF93CDB7DEB7A0970FB603
:1000C000F894DEBF0FBECDBFFC012081222309F4CE
:1000D0007AC08C0147E050E060E071E00E940C05BE
:1000E000892B39F5C80107960E94EE048C0102970E
:1000F000CB97D0F4C8010E942B011F930F9388E087
:1001000091E09F938F938E010F5F1F4F1F930F936B
:100110000E945205C8010E94AF030F900F900F90EC
:100120000F900F900F904FC081E291E00E94AF03BB
:100130004AC049E050E060E471E0C8010E940C054B
:10014000892BE9F5D8011996FD0101900020E9F706
:100150003197EA1BFB0B389739F4F80183858A3312
:1001600019F486858A3329F08AE491E00E94AF036E
:100170002AC0CD010E94EE04F82E8983C8010C9696
:100180000E94EE04E82E8A83C8010F960E94EE04B6
:100190008B83F7E1FF1528F09BE39E1510F08C335D
:1001A00028F088E691E00E94AF030DC0CE010196D1
:1001B0000E940D038BE791E00E94AF0304C08EE81C
:1001C00091E00E94AF03A0960FB6F894DEBF0FBE79
:1001D000CDBFDF91CF911F910F91FF90EF900895C8
:1001E000CF93DF931F92CDB7DEB71EC089818A30CF
:1001F00011F08D3069F4E0919202F0E0ED56FD4F80
:10020000108283E992E00E945600109292020CC084
:10021000909192029F3140F4E92FF0E0ED56FD4FAE
:1002200080839F5F90939202CE0101960E949C036F
:100230008111DCCF0F90DF91CF91089584E690E09B
:100240009093B6028093B5020E946A039093B40221
:100250008093B30208959C01225031092B3331055C
:1002600078F49C01220F331F880F991F880F991F64
:10027000880F991F820F931F9093B6028093B50247
:100280000895FF920F931F93CF93DF93CDB7DEB7FF
:10029000C858D1090FB6F894DEBF0FBECDBF0E947B
:1002A0006A032091B3023091B402AC01421B530B9C
:1002B0002091B5023091B6024217530708F48DC061
:1002C0009093B4028093B30287EA91E00E94AF0357
:1002D0008AE0CC57DF4F8883C458D0408EE1CB579B
:1002E000DF4F8883C558D040CA57DF4F1882C658A1
:1002F000D040CE018C579F4F0E940D03CE018F57E7
:100300009F4F0E942C03CE0189579F4F0E9461028C
:10031000813029F480EC91E00E94AF030BC0823061
:1003200029F487ED91E00E94AF0304C08FEE91E0C5
:100330000E94AF03CF57DF4F8881C158D0400E9441
:100340004804F82EC957DF4F6881C758D040482F5E
:10035000C857DF4F8881C858D0400E944F04182FDB
:1003600001E0811101C000E0C957DF4F2881C75863
:10037000D040C857DF4F4881C858D040BE016F57A2
:100380007F4FCE0101960E946904CE0101960E9422
:10039000AF038BE891E00E94AF031123F1F011301D
:1003A00031F4C857DF4F4881C858D04005C0C957FD
:1003B000DF4F4881C758D0400F2D212FBE016F5706
:1003C0007F4FCE0101960E949604CE0101960E94B5
:1003D000AF038BE891E00E94AF03C857DF4F0FB621
:1003E000F894DEBF0FBECDBFDF91CF911F910F916B
:1003F000FF900895FC01E058FF4F10823196108263
:100400000895FC01E058FF4F20813196908181E0F2
:10041000291380E008950F931F93CF93DF93EC018E
:100420008B010E940102811113C0FE01EF57FF4FA3
:100430008081DE01A80FB11D8C91D8018C93808141
:100440008F5F8083808188232CF4108281E003C039
:1004500080E001C081E0DF91CF911F910F9108955D
:100460009C01FC01E058FF4F90819F5F0AF490E0EF
:10047000F901EF57FF4F208181E0921380E008954A
:100480001F93CF93DF93EC01162F0E94300281114E
:1004900011C0FE01E058FF4F8081DE01A80FB11DA1
:1004A0001C9380818F5F8083808188232CF410824D
:1004B00081E003C080E001C081E0DF91CF911F9116
:1004C0000895CF93DF9300D000D01F92CDB7DEB751
:1004D000DC019E012F5F3F4F85E0F90111928A9563
:1004E000E9F787B1816087B988B18E7F88B983E9E0
:1004F00091E10197F1F700C0000098B1916098B9BF
:1005000097B19E7F97B99AE09A95F1F7309949C0D3
:10051000EAE1EA95F1F700C0309B45C0FAE1FA95AF
:10052000F1F700C0F89450E023C0309BFECF8DE07F
:100530008A95F1F70000252F30E0E1E0F0E0EC0FC4
:10054000FD1FE20FF31F9081990F9083309B08C02D
:10055000E1E0F0E0EC0FFD1FE20FF31F91609083EC
:100560003099FECF4F5F01C040E04830F0F25F5F4E
:100570005530D0F378942D8130E059818A8190E014
:10058000850F911D4B81840F911D6C81860F911DEC
:1005900099272817390749F45C9311964C9380E00A
:1005A00005C081E003C081E001C082E00F900F90A0
:1005B0000F900F900F90DF91CF9108951092B90096
:1005C00088E48093B80084E08093BC00089584EAB6
:1005D0008093BC008091BC008823E4F7089584E9EF
:1005E0008093BC0008958093BB0084E88093BC0096
:1005F0008091BC008823E4F70895811104C084EC45
:100600008093BC0003C084E88093BC008091BC0050
:100610008823E4F78091BB000895CF93DF93EC012A
:100620000E94E70280ED0E94F30280E00E94F30244
:100630008A810E942A040E94F30289810E942A046E
:100640000E94F30288810E942A040E94F3020E9401
:10065000EF02DF91CF910895CF93DF93EC010E94D9
:10066000E70280ED0E94F30280E00E94F3020E9404
:10067000EF020E94E70281ED0E94F30280E00E94F7
:10068000FD020E943D048A8380E00E94FD020E94D8
:100690003D04898381E00E94FD020E943D0488831D
:1006A0000E94EF02DF91CF91089510928000E1E85F
:1006B000F0E088E0808389E698E190938900809358
:1006C0008800808184608083EFE6F0E08081826032
:1006D00080830895F8948091B7029091B80278943D
:1006E00008951F920F920FB60F9211248F939F932C
:1006F0008091B7029091B80201969093B8028093CE
:10070000B7029F918F910F900FBE0F901F90189579
:100710001092C50087E68093C40086E08093C200F3
:1007200088E98093C10089EB92E00E94FA018BE393
:1007300093E00E94FA010895BC0189EB92E00E94C7
:100740000B020895682F8BE393E00E9440028823F8
:1007500029F0E1ECF0E08081806280830895CF93FE
:10076000DF93EC0103C00E94A203219688818111CE
:10077000FACFDF91CF9108951F920F920FB60F928B
:1007800011242F933F934F935F936F937F938F9396
:100790009F93AF93BF93CF93EF93FF93C091C60006
:1007A000C83051F0CF3741F06C2F89EB92E00E94B6
:1007B00040028C2F0E94A203FF91EF91CF91BF9135
:1007C000AF919F918F917F916F915F914F913F91E9
:1007D0002F910F900FBE0F901F9018951F920F92A0
:1007E0000FB60F9211242F933F934F935F936F9304
:1007F0007F938F939F93AF93BF93EF93FF93CF9389
:10080000DF931F92CDB7DEB7BE016F5F7F4F8BE3E3
:1008100093E00E940B02882321F089818093C60017
:1008200005C0E1ECF0E080818F7D80830F90DF9147
:10083000CF91FF91EF91BF91AF919F918F917F9158
:100840006F915F914F913F912F910F900FBE0F903D
:100850001F9018959DEC899F912D11249695969542
:10086000969520E1929FA0011124990F292F220F24
:10087000220F920F891B842B0895982F92959F70B9
:10088000990F292F220F220F920F8F70890F089531
:1008900099EF980F81E09C3008F080E008954423A0
:1008A00041F084518B3068F46253653160F480E02C
:1008B00008958F50883048F46C53653140F480E0DF
:1008C000089581E0089582E0089581E0089582E02E
:1008D00008950F93FB01011103C06BEF71E002C09B
:1008E00062E072E0A281518130817F936F931F9209
:1008F0002F931F924F931F92AF931F925F931F925C
:100900003F9329E032E03F932F931F9226E42F93E9
:100910009F938F930E9422058DB79EB742960FB684
:10092000F8949EBF0FBE8DBF0F9108950F93CF9384
:10093000DF93FB01213019F461E372E002C06DE343
:1009400072E0002319F0A5E4B2E002C0ACE4B2E02A
:10095000213019F425E532E002C027E532E0D281EA
:10096000C18150813F932F931F924F93BF93AF93B9
:100970007F936F931F92DF931F92CF931F925F938A
:1009800029E532E03F932F931F9226E42F939F9304
:100990008F930E9422058DB79EB744960FB6F894A8
:1009A0009EBF0FBE8DBFDF91CF910F9108950E9422
:1009B00088030E94DE020E9455030E941E010E94CD
:1009C000530078940E94F0000E94410183B7816037
:1009D00083BF889583B78E7F83BFF4CFFC018827C0
:1009E0009927E89421912032E9F3293010F02E3034
:1009F000C8F32B3241F02D3239F4689404C00E94C0
:100A00001A05820F911D219120532A30C0F31EF444
:100A1000909581959F4F0895FB01DC014150504016
:100A200030F08D910190801919F40020B9F7881BDE
:100A3000990B08957AE0979F902D879F802D910DB7
:100A400011240895AEE0B0E0E8E2F5E00C9413085C
:100A50000D891E898F89988D26E02C831A8309833E
:100A600097FF02C080E090E801979E838D83AE01DE
:100A7000455E5F4F698D7A8DCE0101960E947405A7
:100A80004D815E8157FD0AC02F813885421753077B
:100A90000CF49A01F801E20FF31F10822E96E4E0A5
:100AA0000C942F08AEE0B0E0E8E5F5E00C941308F4
:100AB0000D891E8986E08C831A8309838FEF9FE757
:100AC0009E838D83AE01475E5F4F6F89788DCE0127
:100AD00001960E947405EF81F885E00FF11F1082E6
:100AE0002E96E4E00C942F08ABE0B0E0EAE7F5E0E6
:100AF0000C9405086C017B018A01FC0117821682A7
:100B0000838181FFCCC1CE0101963C01F601938126
:100B1000F70193FD859193FF81917F01882309F46B
:100B2000BAC1853239F493FD859193FF81917F019C
:100B3000853229F4B60190E00E946B07E7CF912C33
:100B4000212C312CFFE1F315D8F08B3279F038F4F9
:100B5000803279F08332A1F4232D20611DC08D32C3
:100B600061F0803369F4232D216016C0832D8260EB
:100B7000382EE32DE4603E2E2AC0F32DF8601DC010
:100B800037FC2DC020ED280F2A3040F08E32B9F40A
:100B900036FC81C1232D2064322E19C036FE06C0DA
:100BA0008AE0989E200D1124922E11C0EAE02E9E1C
:100BB000200D1124222EF32DF0623F2E08C08C361A
:100BC00021F4832D8068382E02C0883641F4F70165
:100BD00093FD859193FF81917F018111B3CF982F70
:100BE0009F7D9554933028F40C5F1F4F9FE39983AA
:100BF0000DC0833631F0833771F0833509F059C069
:100C000021C0F801808189830E5F1F4F882483945F
:100C1000912C530113C02801F2E04F0E511CF80132
:100C2000A080B18036FE03C0692D70E002C06FEF76
:100C30007FEFC5010E9460074C018201F32DFF7711
:100C40003F2E16C0280122E0420E511CF801A08060
:100C5000B18036FE03C0692D70E002C06FEF7FEFF8
:100C6000C5010E9455074C01F32DF0683F2E82010B
:100C700033FC1BC0822D90E088169906B0F4B601B3
:100C800080E290E00E946B072A94F4CFF50137FCD4
:100C9000859137FE81915F01B60190E00E946B075C
:100CA00021102A9421E0821A91088114910471F78D
:100CB000E8C0843611F0893641F5F80137FE07C0E7
:100CC00060817181828193810C5F1F4F08C06081B8
:100CD0007181072E000C880B990B0E5F1F4FF32DAF
:100CE000FF763F2E97FF09C090958095709561958E
:100CF0007F4F8F4F9F4FF0683F2E2AE030E0A301D7
:100D00000E94A707882E861845C0853731F4232D09
:100D10002F7EB22E2AE030E025C0932D997FB92E88
:100D20008F36C1F018F4883579F0B5C0803719F0E6
:100D3000883721F0B0C0E92FE061BE2EB4FE0DC0AF
:100D4000FB2DF460BF2E09C034FE0AC0292F266097
:100D5000B22E06C028E030E005C020E130E002C03D
:100D600020E132E0F801B7FE07C060817181828125
:100D700093810C5F1F4F06C06081718180E090E01D
:100D80000E5F1F4FA3010E94A707882E8618FB2D18
:100D9000FF773F2E36FE0DC0232D2E7FA22E891405
:100DA00058F434FE0BC032FC09C0832D8E7EA82E71
:100DB00005C0B82CA32C03C0B82C01C0B92CA4FECC
:100DC0000FC0FE01E80DF11D8081803321F49A2DC2
:100DD000997EA92E09C0A2FE06C0B394B39404C0A4
:100DE0008A2D867809F0B394A3FC11C0A0FE06C03A
:100DF000B21488F4280C922C9B180EC0B21460F424
:100E0000B60180E290E00E946B07B394F7CFB21472
:100E100018F42B1802C0982C212CA4FE10C0B60187
:100E200080E390E00E946B07A2FE17C0A1FC03C004
:100E300088E790E002C088E590E0B6010CC08A2DFA
:100E4000867859F0A1FE02C08BE201C080E2A7FCC7
:100E50008DE2B60190E00E946B07891438F4B60168
:100E600080E390E00E946B079A94F7CF8A94F30195
:100E7000E80DF11D8081B60190E00E946B078110A2
:100E8000F5CF222009F442CEB60180E290E00E9424
:100E90006B072A94F6CFF6018681978102C08FEF07
:100EA0009FEF2B96E2E10C942108FC010590615024
:100EB00070400110D8F7809590958E0F9F1F089570
:100EC000FC016150704001900110D8F78095909519
:100ED0008E0F9F1F08950F931F93CF93DF93FB01F6
:100EE000238121FD03C08FEF9FEF2CC022FF16C08E
:100EF00046815781248135814217530744F4A081EC
:100F0000B1819D012F5F3F4F318320838C932681D8
:100F100037812F5F3F4F3783268314C08B01EC014D
:100F2000FB010084F185E02D0995892BE1F6D801BC
:100F300016968D919C911797019617969C938E9378
:100F40001697CE01DF91CF911F910F910895FA016D
:100F5000AA27283051F1203181F1E8946F936E7FF8
:100F60006E5F7F4F8F4F9F4FAF4FB1E03ED0B4E0E9
:100F70003CD0670F781F891F9A1FA11D680F791F2A
:100F80008A1F911DA11D6A0F711D811D911DA11D3B
:100F900020D009F468943F912AE0269F112430194B
:100FA000305D3193DEF6CF010895462F4770405DE6
:100FB0004193B3E00FD0C9F7F6CF462F4F70405D95
:100FC0004A3318F0495D31FD4052419302D0A9F7F0
:100FD000EACFB4E0A6959795879577956795BA95EA
:100FE000C9F700976105710508959B01AC010A2EB0
:100FF00006945795479537952795BA95C9F7620F87
:10100000731F841F951FA01D08952F923F924F922A
:101010005F926F927F928F929F92AF92BF92CF9288
:10102000DF92EF92FF920F931F93CF93DF93CDB791
:10103000DEB7CA1BDB0B0FB6F894DEBF0FBECDBF09
:1010400009942A88398848885F846E847D848C84DA
:101050009B84AA84B984C884DF80EE80FD800C81E3
:101060001B81AA81B981CE0FD11D0FB6F894DEBFC6
:0C1070000FBECDBFED010895F894FFCF36
:10107C005345545F544D3D005461736120646520A9
:10108C006D7565737472656F3A20256420730D0A53
:10109C00004552524F5220454E204C412054415352
:1010AC0041204445204D5545535452454F0D0A009F
:1010BC005345545F54494D453D004552524F5220C3
:1010CC00454E20454C20464F524D41544F204445EF
:1010DC0020484F52410D0A004552524F5220454E66
:1010EC00204C4120484F52410D0A00486F7261203C
:1010FC006D6F64696669636164612E0D0A00436FEC
:10110C006D616E646F206E6F207265636F6E6F63BE
:10111C0069646F2E0D0A005265706F7274652064DD
:10112C006520696E7665726E616465726F0D0A007A
:10113C0044485431313A2073696E2072657370756E
:10114C00657374610D0A0044485431313A2065725C
:10115C00726F7220636865636B73756D0D0A004462
:10116C00485431313A204F4B0D0A004E4F524D41ED
:10117C004C00414C45525441005B253032753A25A8
:10118C003032753A253032755D543A2575B0437C52
:10119C00483A257525257C45737461646F3A25732F
:1011AC000054656D70657261747572610048756D7F
:1011BC006564616400646975726E6F006E6F637450
:1011CC0075726E6F00430025005B414C45525441D3
:1011DC005D5B253032753A253032753A25303275E3
:1011EC005D25732066756572612064652072616E81
:1011FC00676F2025732156616C6F723A25752573C4
:02120C000000E0
:00000001FF
