:100000000C9434000C9451000C9451000C94510049
:100010000C9451000C9451000C9451000C9451001C
:100020000C9451000C9451000C9451000C948103D9
:100030000C9451000C9451000C9451000C945100FC
:100040000C9451000C9451000C94CC030C94F803C4
:100050000C9451000C9451000C9451000C945100DC
:100060000C9451000C94510011241FBECFEFD8E026
:10007000DEBFCDBF12E0A0E0B1E0E4E1F1E102C0FB
:1000800005900D92A43AB107D9F723E0A4EAB2E0B3
:1000900001C01D92A83EB207E1F70E9423050C940F
:1000A00088080C9400001092A4020895EF92FF9229
:1000B0000F931F93CF93DF93CDB7DEB7A0970FB603
:1000C000F894DEBF0FBECDBFFC012081222309F4CE
:1000D0007AC08C0147E050E060E071E00E94580572
:1000E000892B39F5C80107960E943A058C010297C1
:1000F000CB97D0F4C8010E9436011F930F9388E07C
:1001000091E09F938F938E010F5F1F4F1F930F936B
:100110000E949E05C8010E94BF030F900F900F9090
:100120000F900F900F904FC081E291E00E94BF03AB
:100130004AC049E050E060E471E0C8010E945805FF
:10014000892BE9F5D8011996FD0101900020E9F706
:100150003197EA1BFB0B389739F4F80183858A3312
:1001600019F486858A3329F08AE491E00E94BF035E
:100170002AC0CD010E943A05F82E8983C8010C9649
:100180000E943A05E82E8A83C8010F960E943A051C
:100190008B83F7E1FF1528F09BE39E1510F08C335D
:1001A00028F088E691E00E94BF030DC0CE010196C1
:1001B0000E941D038BE791E00E94BF0304C08EE8FC
:1001C00091E00E94BF03A0960FB6F894DEBF0FBE69
:1001D000CDBFDF91CF911F910F91FF90EF900895C8
:1001E000CF93DF931F92CDB7DEB729C089818A30C4
:1001F00011F08D30C1F48091A402E82FF0E0EB55AE
:10020000FD4F1082882361F085EA92E00E94BF03CF
:1002100081EC91E00E94BF0385EA92E00E945600C3
:100220001092A4020CC09091A4029F3140F4E92FD7
:10023000F0E0EB55FD4F80839F5F9093A402CE01C9
:1002400001960E94AC038111D1CF0F90DF91CF9125
:10025000089584E690E09093C9028093C8020E94BA
:100260007A039093C7028093C60208959C0122509E
:1002700031092B33310578F49C01220F331F880F8D
:10028000991F880F991F880F991F820F931F9093B2
:10029000C9028093C8020895FF920F931F93CF93D2
:1002A000DF93CDB7DEB7C554D1090FB6F894DEBFE2
:1002B0000FBECDBF0E947A032091C6023091C702C3
:1002C000AC01421B530B2091C8023091C902421766
:1002D000530708F48AC021E03091C502311120E0B3
:1002E0002093C5029093C7028093C60287EA91E0EB
:1002F0000E94BF03CE018F5B9F4F0E943C03CE0143
:100300008C5B9F4F0E946A02182FCE018F5B9F4F1C
:100310000E94080581110DC0CE0101960E941A05A8
:10032000CE0101960E94BF0381EC91E00E94BF03C1
:100330005CC0112389F0412FBE016F5B7F4FCE015E
:1003400001960E94E104CE0101960E94BF0381EC58
:1003500091E00E94BF0349C022968FAD22970E9470
:100360005204F82E25966FAD2597482F26968FAD0F
:1003700026970E945904182F01E0811101C000E066
:1003800025962FAD259726964FAD2697BE016F5B1C
:100390007F4FCE0101960E947304CE0101960E9408
:1003A000BF0381EC91E00E94BF031123F1F0809123
:1003B000C5028823D1F0113021F426964FAD26973F
:1003C00003C025964FAD25970F2D212FBE016F5BE2
:1003D0007F4FCE0101960E94A004CE0101960E949B
:1003E000BF0381EC91E00E94BF03CB5BDF4F0FB6F0
:1003F000F894DEBF0FBECDBFDF91CF911F910F915B
:10040000FF900895FC01E457FF4F1082319610824F
:100410000895FC01E457FF4F20813196908181E0DF
:10042000291380E008950F931F93CF93DF93EC017E
:100430008B010E940902811113C0FE01E357FF4F97
:100440008081DE01A80FB11D8C91D8018C93808131
:100450008F5F808380818C3828F0108281E003C018
:1004600080E001C081E0DF91CF911F910F9108954D
:100470009C01FC01E457FF4F90819F5F9C3808F07E
:1004800090E0F901E357FF4F208181E0921380E073
:1004900008951F93CF93DF93EC01162F0E9438022B
:1004A000811111C0FE01E457FF4F8081DE01A80FCA
:1004B000B11D1C9380818F5F808380818C3828F0F0
:1004C000108281E003C080E001C081E0DF91CF9124
:1004D0001F910895CF93DF9300D000D01F92CDB726
:1004E000DEB7DC019E012F5F3F4F85E0F9011192DD
:1004F0008A95E9F787B1816087B988B18E7F88B91D
:10050000FFEF20EE80E0F15020408040E1F700C096
:10051000000098B1916098B997B19E7F97B990EA21
:100520009A95F1F730994DC0EFE3F1E03197F1F78B
:1005300000C00000309B47C08FE391E00197F1F7C6
:1005400000C00000F89450E023C0309BFECF95ED32
:100550009A95F1F70000252F30E0E1E0F0E0EC0F94
:10056000FD1FE20FF31F9081990F9083309B08C00D
:10057000E1E0F0E0EC0FFD1FE20FF31F91609083CC
:100580003099FECF4F5F01C040E04830F0F25F5F2E
:100590005530D0F378942D8130E059818A8190E0F4
:1005A000850F911D4B81840F911D6C81860F911DCC
:1005B00099272817390749F45C9311964C9380E0EA
:1005C00005C081E003C081E001C082E00F900F9080
:1005D0000F900F900F90DF91CF9108951092B90076
:1005E00088E48093B80084E08093BC00089584EA96
:1005F0008093BC008091BC008823E4F7089584E9CF
:100600008093BC0008958093BB0084E88093BC0075
:100610008091BC008823E4F70895811104C084EC24
:100620008093BC0003C084E88093BC008091BC0030
:100630008823E4F78091BB000895CF93DF93EC010A
:100640000E94F70280ED0E94030380E00E940303F2
:100650008A810E9434040E94030389810E94340429
:100660000E94030388810E9434040E9403030E94B5
:10067000FF02DF91CF910895CF93DF93EC010E94A9
:10068000F70280ED0E94030380E00E9403030E94B2
:10069000FF020E94F70281ED0E94030380E00E94A6
:1006A0000D030E9447048A8380E00E940D030E948C
:1006B0004704898381E00E940D030E9447048883D8
:1006C0000E94FF02DF91CF91089510928000E1E82F
:1006D000F0E088E0808389E698E190938900809338
:1006E0008800808184608083EFE6F0E08081826012
:1006F00080830895F8948091CA029091CB027894F7
:1007000008951F920F920FB60F9211248F939F930B
:100710008091CA029091CB0201969093CB02809374
:10072000CA029F918F910F900FBE0F901F90189546
:100730001092C50087E68093C40086E08093C200D3
:1007400088E98093C1008CEC92E00E9402028AE565
:1007500093E00E9402020895BC018CEC92E00E949A
:1007600013020895682F8AE593E00E9449028823C6
:1007700029F0E1ECF0E08081806280830895CF93DE
:10078000DF93EC0103C00E94B2032196888181119E
:10079000FACFDF91CF9108951F920F920FB60F926B
:1007A00011242F933F934F935F936F937F938F9376
:1007B0009F93AF93BF93EF93FF936091C600683010
:1007C00031F06F3721F08CEC92E00E944902FF91EA
:1007D000EF91BF91AF919F918F917F916F915F91B9
:1007E0004F913F912F910F900FBE0F901F90189532
:1007F0001F920F920FB60F9211242F933F934F9396
:100800005F936F937F938F939F93AF93BF93EF9378
:10081000FF93CF93DF931F92CDB7DEB7BE016F5F1B
:100820007F4F8AE593E00E941302882321F089819B
:100830008093C60005C0E1ECF0E080818F7D80836D
:100840000F90DF91CF91FF91EF91BF91AF919F9169
:100850008F917F916F915F914F913F912F910F9069
:100860000FBE0F901F9018959DEC899F912D11241C
:1008700096959695969520E1929FA0011124990F47
:10088000292F220F220F920F891B842B0895982F56
:1008900092959F70990F292F220F220F920F8F7020
:1008A000890F089599EF980F81E09C3008F080E05F
:1008B0000895442341F084518B3068F462536531CC
:1008C00060F480E008958F50883048F46C536531AF
:1008D00040F480E0089581E0089582E0089581E089
:1008E000089582E008950F93FB01011103C064ECA9
:1008F00071E002C06BEC71E0A281518130817F9385
:100900006F931F922F931F924F931F92AF931F923B
:100910005F931F923F9322ED31E03F932F931F92FD
:1009200020E42F939F938F930E946E058DB79EB7FF
:1009300042960FB6F8949EBF0FBE8DBF0F910895DB
:100940000F93CF93DF93FB01213019F46AEF71E02D
:1009500002C066E072E0002319F0AEE0B2E002C02F
:10096000A5E1B2E0213019F42EE132E002C020E22C
:1009700032E0D281C18150813F932F931F924F93D8
:10098000BF93AF937F936F931F92DF931F92CF9389
:100990001F925F9322E232E03F932F931F9220E455
:1009A0002F939F938F930E946E058DB79EB74496A9
:1009B0000FB6F8949EBF0FBE8DBFDF91CF910F9100
:1009C0000895FB01413019F426E932E002C02AE51E
:1009D00032E06281518140813F932F931F926F9348
:1009E0001F925F931F924F9329E632E03F932F931C
:1009F0001F9226E42F939F938F930E946E058DB7CD
:100A00009EB70E960FB6F8949EBF0FBE8DBF089589
:100A1000FC012081253A41F42181253A39F4828173
:100A2000853A31F081E0089581E0089581E00895EC
:100A300080E00895DC0191E2E3E8F2E001900D929C
:100A40009A95E1F708950E9498030E94EE020E9491
:100A500065030E9429010E94530078940E94F000CF
:100A60000E944C0183B7816083BF889583B78E7FD6
:100A700083BFF4CFFC0188279927E8942191203285
:100A8000E9F3293010F02E30C8F32B3241F02D322B
:100A900039F4689404C00E946605820F911D21916B
:100AA00020532A30C0F31EF4909581959F4F0895EE
:100AB000FB01DC014150504030F08D9101908019D4
:100AC00019F40020B9F7881B990B08957AE0979FD5
:100AD000902D879F802D910D11240895AEE0B0E0F8
:100AE000E4E7F5E00C945F080D891E898F89988DE5
:100AF00026E02C831A83098397FF02C080E090E8E8
:100B000001979E838D83AE01455E5F4F698D7A8D1F
:100B1000CE0101960E94C0054D815E8157FD0AC03D
:100B20002F813885421753070CF49A01F801E20F20
:100B3000F31F10822E96E4E00C947B08AEE0B0E048
:100B4000E4EAF5E00C945F080D891E8986E08C8349
:100B50001A8309838FEF9FE79E838D83AE01475EE3
:100B60005F4F6F89788DCE0101960E94C005EF819D
:100B7000F885E00FF11F10822E96E4E00C947B08BC
:100B8000ABE0B0E0E6ECF5E00C9451086C017B01C1
:100B90008A01FC0117821682838181FFCCC1CE01BC
:100BA00001963C01F6019381F70193FD859193FF36
:100BB00081917F01882309F4BAC1853239F493FD0C
:100BC000859193FF81917F01853229F4B60190E0F0
:100BD0000E94B707E7CF912C212C312CFFE1F315B0
:100BE000D8F08B3279F038F4803279F08332A1F486
:100BF000232D20611DC08D3261F0803369F4232DD7
:100C0000216016C0832D8260382EE32DE4603E2ED5
:100C10002AC0F32DF8601DC037FC2DC020ED280F31
:100C20002A3040F08E32B9F436FC81C1232D206485
:100C3000322E19C036FE06C08AE0989E200D11247F
:100C4000922E11C0EAE02E9E200D1124222EF32DAB
:100C5000F0623F2E08C08C3621F4832D8068382E38
:100C600002C0883641F4F70193FD859193FF81918D
:100C70007F018111B3CF982F9F7D9554933028F435
:100C80000C5F1F4F9FE399830DC0833631F083378C
:100C900071F0833509F059C021C0F8018081898342
:100CA0000E5F1F4F88248394912C530113C0280199
:100CB000F2E04F0E511CF801A080B18036FE03C057
:100CC000692D70E002C06FEF7FEFC5010E94AC0795
:100CD0004C018201F32DFF773F2E16C0280122E040
:100CE000420E511CF801A080B18036FE03C0692D70
:100CF00070E002C06FEF7FEFC5010E94A1074C01B9
:100D0000F32DF0683F2E820133FC1BC0822D90E052
:100D100088169906B0F4B60180E290E00E94B70709
:100D20002A94F4CFF50137FC859137FE81915F015C
:100D3000B60190E00E94B70721102A9421E0821AA0
:100D400091088114910471F7E8C0843611F0893656
:100D500041F5F80137FE07C060817181828193817E
:100D60000C5F1F4F08C060817181072E000C880B3B
:100D7000990B0E5F1F4FF32DFF763F2E97FF09C093
:100D800090958095709561957F4F8F4F9F4FF0683C
:100D90003F2E2AE030E0A3010E94F307882E861838
:100DA00045C0853731F4232D2F7EB22E2AE030E066
:100DB00025C0932D997FB92E8F36C1F018F4883550
:100DC00079F0B5C0803719F0883721F0B0C0E92F2D
:100DD000E061BE2EB4FE0DC0FB2DF460BF2E09C035
:100DE00034FE0AC0292F2660B22E06C028E030E06B
:100DF00005C020E130E002C020E132E0F801B7FE9A
:100E000007C060817181828193810C5F1F4F06C092
:100E10006081718180E090E00E5F1F4FA3010E940E
:100E2000F307882E8618FB2DFF773F2E36FE0DC068
:100E3000232D2E7FA22E891458F434FE0BC032FCD1
:100E400009C0832D8E7EA82E05C0B82CA32C03C00C
:100E5000B82C01C0B92CA4FE0FC0FE01E80DF11D95
:100E60008081803321F49A2D997EA92E09C0A2FE9B
:100E700006C0B394B39404C08A2D867809F0B39465
:100E8000A3FC11C0A0FE06C0B21488F4280C922C5A
:100E90009B180EC0B21460F4B60180E290E00E948C
:100EA000B707B394F7CFB21418F42B1802C0982CDC
:100EB000212CA4FE10C0B60180E390E00E94B70789
:100EC000A2FE17C0A1FC03C088E790E002C088E53D
:100ED00090E0B6010CC08A2D867859F0A1FE02C0C0
:100EE0008BE201C080E2A7FC8DE2B60190E00E9497
:100EF000B707891438F4B60180E390E00E94B70781
:100F00009A94F7CF8A94F301E80DF11D8081B60120
:100F100090E00E94B7078110F5CF222009F442CE5D
:100F2000B60180E290E00E94B7072A94F6CFF6015E
:100F30008681978102C08FEF9FEF2B96E2E10C94A0
:100F40006D08FC010590615070400110D8F7809544
:100F500090958E0F9F1F0895FC0161507040019085
:100F60000110D8F7809590958E0F9F1F08950F93CD
:100F70001F93CF93DF93FB01238121FD03C08FEFEC
:100F80009FEF2CC022FF16C04681578124813581F6
:100F90004217530744F4A081B1819D012F5F3F4F59
:100FA000318320838C93268137812F5F3F4F378396
:100FB000268314C08B01EC01FB010084F185E02D38
:100FC0000995892BE1F6D80116968D919C9117977A
:100FD000019617969C938E931697CE01DF91CF9131
:100FE0001F910F910895FA01AA27283051F120315D
:100FF00081F1E8946F936E7F6E5F7F4F8F4F9F4FAD
:10100000AF4FB1E03ED0B4E03CD0670F781F891FEE
:101010009A1FA11D680F791F8A1F911DA11D6A0FBC
:10102000711D811D911DA11D20D009F468943F916F
:101030002AE0269F11243019305D3193DEF6CF016E
:101040000895462F4770405D4193B3E00FD0C9F734
:10105000F6CF462F4F70405D4A3318F0495D31FDA1
:101060004052419302D0A9F7EACFB4E0A6959795F4
:10107000879577956795BA95C9F7009761057105CA
:1010800008959B01AC010A2E069457954795379514
:101090002795BA95C9F7620F731F841F951FA01D6E
:1010A00008952F923F924F925F926F927F928F920C
:1010B0009F92AF92BF92CF92DF92EF92FF920F93E7
:1010C0001F93CF93DF93CDB7DEB7CA1BDB0B0FB6F1
:1010D000F894DEBF0FBECDBF09942A8839884888AE
:1010E0005F846E847D848C849B84AA84B984C88444
:1010F000DF80EE80FD800C811B81AA81B981CE0F3B
:10110000D11D0FB6F894DEBF0FBECDBFED0108951F
:04111000F894FFCF81
:101114005345545F544D3D00546173612064652010
:101124006D7565737472656F3A20256420730D0ABA
:10113400004552524F5220454E204C4120544153B9
:1011440041204445204D5545535452454F0D0A0006
:101154005345545F54494D453D004552524F52202A
:10116400454E20454C20464F524D41544F20444556
:1011740020484F52410D0A004552524F5220454ECD
:10118400204C4120484F52410D0A00486F726120A3
:101194006D6F64696669636164612E0D0A00436F53
:1011A4006D616E646F206E6F207265636F6E6F6326
:1011B40069646F2E0D0A000D0A5265706F727465B2
:1011C40020646520696E7665726E616465726F3A3B
:1011D400200D0A004E4F524D414C00414C45525493
:1011E40041005B253032753A253032753A2530326C
:1011F400755D543A2575B0437C483A257525257CA0
:1012040045737461646F3A25730054656D7065723B
:1012140061747572610048756D6564616400646928
:1012240075726E6F006E6F637475726E6F0043003B
:1012340025005B414C455254415D5B253032753A83
:10124400253032753A253032755D25732066756513
:1012540072612064652072616E676F202573215668
:10126400616C6F723A25752573006572726F722016
:10127400636865636B73756D005B253032753A2561
:101284003032753A253032755D204448543131206E
:101294002573005B4552524F525D20525443204403
:1012A40053333233322073696E20726573707565FF
:0412B40073746100EE
:00000001FF
