:100000000C9434000C9451000C9451000C94510049
:100010000C9451000C9451000C9451000C9451001C
:100020000C9451000C9451000C9451000C941C023F
:100030000C9451000C9451000C9451000C945100FC
:100040000C9451000C9451000C9467020C9499028A
:100050000C9451000C9451000C9451000C945100DC
:100060000C9451000C94510011241FBECFEFD8E026
:10007000DEBFCDBF11E0A0E0B1E0EEE3FCE002C0E6
:1000800005900D92A03CB107D9F722E0A0ECB1E0B9
:1000900001C01D92AB36B207E1F70E94E8020C9452
:1000A0001D060C9400001092C0010895EF92FF927B
:1000B0000F931F93CF93DF93CDB7DEB7A0970FB603
:1000C000F894DEBF0FBECDBFFC012081222309F4CE
:1000D0007AC08C0147E050E060E071E00E941D03AF
:1000E000892B39F5C80107960E94FF028C010297FF
:1000F000CB97D0F4C8010E942B011F930F9388E087
:1001000091E09F938F938E010F5F1F4F1F930F936B
:100110000E943303C8010E945A020F900F900F9063
:100120000F900F900F904FC081E291E00E945A0211
:100130004AC049E050E060E471E0C8010E941D033C
:10014000892BE9F5D8011996FD0101900020E9F706
:100150003197EA1BFB0B389739F4F80183858A3312
:1001600019F486858A3329F08AE491E00E945A02C4
:100170002AC0CD010E94FF02F82E8983C8010C9687
:100180000E94FF02E82E8A83C8010F960E94FF0298
:100190008B83F7E1FF1528F09BE39E1510F08C335D
:1001A00028F088E691E00E945A020DC0CE01019627
:1001B0000E94E1018BE791E00E945A0204C08EE8A0
:1001C00091E00E945A02A0960FB6F894DEBF0FBECF
:1001D000CDBFDF91CF911F910F91FF90EF900895C8
:1001E000CF93DF931F92CDB7DEB71EC089818A30CF
:1001F00011F08D3069F4E091C001F0E0EF53FE4F53
:10020000108281EC91E00E9456001092C0010CC057
:100210009091C0019F3140F4E92FF0E0EF53FE4F81
:1002200080839F5F9093C001CE0101960E94470298
:100230008111DCCF0F90DF91CF91089584E690E09B
:100240009093E4018093E3010E9415029093E201F0
:100250008093E10108959C01225031092B3331052F
:1002600078F49C01220F331F880F991F880F991F64
:10027000880F991F820F931F9093E4018093E301ED
:1002800008950E9415022091E1013091E201AC0134
:10029000421B530B2091E3013091E40142175307B5
:1002A00040F09093E2018093E10187EA91E00E949F
:1002B0005A020895FC01E05CFF4F108231961082D3
:1002C0000895FC01E05CFF4F20813196908181E030
:1002D000291380E008950F931F93CF93DF93EC01D0
:1002E0008B010E946101811113C0FE01EF5BFF4F82
:1002F0008081DE01A80FB11D8C91D8018C93808183
:100300008F5F80838081803428F0108281E003C079
:1003100080E001C081E0DF91CF911F910F9108959E
:100320009C01FC01E05CFF4F90819F5F903408F0DE
:1003300090E0F901EF5BFF4F208181E0921380E0B4
:1003400008951F93CF93DF93EC01162F0E94900125
:10035000811111C0FE01E05CFF4F8081DE01A80F1A
:10036000B11D1C9380818F5F80838081803428F051
:10037000108281E003C080E001C081E0DF91CF9175
:100380001F9108951092B90088E48093B80084E02A
:100390008093BC00089584EA8093BC008091BC00E7
:1003A0008823E4F7089584E98093BC00089580933E
:1003B000BB0084E88093BC008091BC008823E4F7F4
:1003C0000895CF93DF93EC010E94CB0180ED0E9452
:1003D000D70180E00E94D7018A810E94D5020E9445
:1003E000D70189810E94D5020E94D70188810E948D
:1003F000D5020E94D7010E94D301DF91CF910895C9
:1004000010928000E1E8F0E088E0808389E698E1DE
:100410009093890080938800808184608083EFE6D8
:10042000F0E08081826080830895F8948091E501F6
:100430009091E601789408951F920F920FB60F9253
:1004400011248F939F938091E5019091E60101968D
:100450009093E6018093E5019F918F910F900FBEDD
:100460000F901F9018951092C50087E68093C400E6
:1004700086E08093C20088E98093C10087EE91E016
:100480000E945A0189E292E00E945A010895BC013B
:1004900087EE91E00E946B010895682F89E292E057
:1004A0000E94A101882329F0E1ECF0E080818062C4
:1004B00080830895CF93DF93EC0103C00E944D0227
:1004C000219688818111FACFDF91CF9108951F92F3
:1004D0000F920FB60F9211242F933F934F935F9378
:1004E0006F937F938F939F93AF93BF93CF93EF932C
:1004F000FF93C091C600C83051F0CF3741F06C2F48
:1005000087EE91E00E94A1018C2F0E944D02FF9185
:10051000EF91CF91BF91AF919F918F917F916F910B
:100520005F914F913F912F910F900FBE0F901F90B1
:1005300018951F920F920FB60F9211242F933F938D
:100540004F935F936F937F938F939F93AF93BF93DB
:10055000EF93FF93CF93DF931F92CDB7DEB7BE012A
:100560006F5F7F4F89E292E00E946B01882321F048
:1005700089818093C60005C0E1ECF0E080818F7D29
:1005800080830F90DF91CF91FF91EF91BF91AF9159
:100590009F918F917F916F915F914F913F912F919B
:1005A0000F900FBE0F901F9018959DEC899F912D75
:1005B000112496959695969520E1929FA00111247D
:1005C000990F292F220F220F920F891B842B089538
:1005D0000E9433020E94C2010E9400020E941E017A
:1005E0000E94530078940E94F0000E94410183B75A
:1005F000816083BF889583B78E7F83BFF4CFFC0172
:1006000088279927E89421912032E9F3293010F0C6
:100610002E30C8F32B3241F02D3239F4689404C0E7
:100620000E942B03820F911D219120532A30C0F389
:100630001EF4909581959F4F0895FB01DC01415078
:10064000504030F08D910190801919F40020B9F7D5
:10065000881B990B08957AE0979F902D879F802D96
:10066000910D11240895AEE0B0E0E9E3F3E00C94BD
:10067000F4050D891E8986E08C831A8309838FEF28
:100680009FE79E838D83AE01475E5F4F6F89788DB4
:10069000CE0101960E945503EF81F885E00FF11F0E
:1006A00010822E96E4E00C941006ABE0B0E0EBE58F
:1006B000F3E00C94E6056C017B018A01FC011782D2
:1006C0001682838181FFCCC1CE0101963C01F601E7
:1006D0009381F70193FD859193FF81917F01882399
:1006E00009F4BAC1853239F493FD859193FF819164
:1006F0007F01853229F4B60190E00E944C05E7CFD6
:10070000912C212C312CFFE1F315D8F08B3279F0AC
:1007100038F4803279F08332A1F4232D20611DC09A
:100720008D3261F0803369F4232D216016C0832D52
:100730008260382EE32DE4603E2E2AC0F32DF8604F
:100740001DC037FC2DC020ED280F2A3040F08E321E
:10075000B9F436FC81C1232D2064322E19C036FE37
:1007600006C08AE0989E200D1124922E11C0EAE066
:100770002E9E200D1124222EF32DF0623F2E08C054
:100780008C3621F4832D8068382E02C0883641F4DF
:10079000F70193FD859193FF81917F018111B3CF83
:1007A000982F9F7D9554933028F40C5F1F4F9FE343
:1007B00099830DC0833631F0833771F0833509F0AA
:1007C00059C021C0F801808189830E5F1F4F8824A2
:1007D0008394912C530113C02801F2E04F0E511C59
:1007E000F801A080B18036FE03C0692D70E002C020
:1007F0006FEF7FEFC5010E9441054C018201F32D8F
:10080000FF773F2E16C0280122E0420E511CF8014E
:10081000A080B18036FE03C0692D70E002C06FEF8A
:100820007FEFC5010E9436054C01F32DF0683F2E85
:10083000820133FC1BC0822D90E088169906B0F42B
:10084000B60180E290E00E944C052A94F4CFF501B5
:1008500037FC859137FE81915F01B60190E00E94DF
:100860004C0521102A9421E0821A910881149104E8
:1008700071F7E8C0843611F0893641F5F80137FE8A
:1008800007C060817181828193810C5F1F4F08C016
:1008900060817181072E000C880B990B0E5F1F4F32
:1008A000F32DFF763F2E97FF09C0909580957095A8
:1008B00061957F4F8F4F9F4FF0683F2E2AE030E0C9
:1008C000A3010E948805882E861845C0853731F41B
:1008D000232D2F7EB22E2AE030E025C0932D997F64
:1008E000B92E8F36C1F018F4883579F0B5C080374D
:1008F00019F0883721F0B0C0E92FE061BE2EB4FEB8
:100900000DC0FB2DF460BF2E09C034FE0AC0292F94
:100910002660B22E06C028E030E005C020E130E0BD
:1009200002C020E132E0F801B7FE07C060817181AA
:10093000828193810C5F1F4F06C06081718180E0CE
:1009400090E00E5F1F4FA3010E948805882E861835
:10095000FB2DFF773F2E36FE0DC0232D2E7FA22EBE
:10096000891458F434FE0BC032FC09C0832D8E7EEE
:10097000A82E05C0B82CA32C03C0B82C01C0B92CDC
:10098000A4FE0FC0FE01E80DF11D8081803321F42B
:100990009A2D997EA92E09C0A2FE06C0B394B394E5
:1009A00004C08A2D867809F0B394A3FC11C0A0FE80
:1009B00006C0B21488F4280C922C9B180EC0B214F6
:1009C00060F4B60180E290E00E944C05B394F7CF4A
:1009D000B21418F42B1802C0982C212CA4FE10C0BD
:1009E000B60180E390E00E944C05A2FE17C0A1FC76
:1009F00003C088E790E002C088E590E0B6010CC033
:100A00008A2D867859F0A1FE02C08BE201C080E2F7
:100A1000A7FC8DE2B60190E00E944C05891438F4E1
:100A2000B60180E390E00E944C059A94F7CF8A9437
:100A3000F301E80DF11D8081B60190E00E944C05A4
:100A40008110F5CF222009F442CEB60180E290E079
:100A50000E944C052A94F6CFF6018681978102C048
:100A60008FEF9FEF2B96E2E10C940206FC010590BC
:100A7000615070400110D8F7809590958E0F9F1FA0
:100A80000895FC016150704001900110D8F78095E5
:100A900090958E0F9F1F08950F931F93CF93DF9311
:100AA000FB01238121FD03C08FEF9FEF2CC022FFAC
:100AB00016C046815781248135814217530744F47B
:100AC000A081B1819D012F5F3F4F318320838C93A3
:100AD000268137812F5F3F4F3783268314C08B01D8
:100AE000EC01FB010084F185E02D0995892BE1F6ED
:100AF000D80116968D919C911797019617969C9305
:100B00008E931697CE01DF91CF911F910F9108958B
:100B1000FA01AA27283051F1203181F1E8946F932E
:100B20006E7F6E5F7F4F8F4F9F4FAF4FB1E03ED0D4
:100B3000B4E03CD0670F781F891F9A1FA11D680F72
:100B4000791F8A1F911DA11D6A0F711D811D911DA5
:100B5000A11D20D009F468943F912AE0269F11241A
:100B60003019305D3193DEF6CF010895462F47707E
:100B7000405D4193B3E00FD0C9F7F6CF462F4F70D9
:100B8000405D4A3318F0495D31FD4052419302D037
:100B9000A9F7EACFB4E0A6959795879577956795DD
:100BA000BA95C9F700976105710508959B01AC01DD
:100BB0000A2E06945795479537952795BA95C9F704
:100BC000620F731F841F951FA01D08952F923F92DF
:100BD0004F925F926F927F928F929F92AF92BF924D
:100BE000CF92DF92EF92FF920F931F93CF93DF93F9
:100BF000CDB7DEB7CA1BDB0B0FB6F894DEBF0FBE56
:100C0000CDBF09942A88398848885F846E847D84A2
:100C10008C849B84AA84B984C884DF80EE80FD80A4
:100C20000C811B81AA81B981CE0FD11D0FB6F8941A
:0E0C3000DEBF0FBECDBFED010895F894FFCFDB
:100C3E005345545F544D3D005461736120646520EB
:100C4E006D7565737472656F3A20256420730D0A95
:100C5E00004552524F5220454E204C412054415394
:100C6E0041204445204D5545535452454F0D0A00E1
:100C7E005345545F54494D453D004552524F522005
:100C8E00454E20454C20464F524D41544F20444531
:100C9E0020484F52410D0A004552524F5220454EA8
:100CAE00204C4120484F52410D0A00486F7261207E
:100CBE006D6F64696669636164612E0D0A00436F2E
:100CCE006D616E646F206E6F207265636F6E6F6301
:100CDE0069646F2E0D0A005265706F727465206420
:100CEE006520696E7665726E616465726F0D0A00BD
:00000001FF
