S00B00005470332E7372656322
S11300000C9434000C9451000C9451000C94510045
S11300100C9451000C9451000C9451000C94510018
S11300200C9451000C9451000C9451000C94170240
S11300300C9451000C9451000C9451000C945100F8
S11300400C9451000C9451000C9462020C94900294
S11300500C9451000C9451000C9451000C945100D8
S11300600C9451000C94510011241FBECFEFD8E022
S1130070DEBFCDBF11E0A0E0B1E0ECE2FCE002C0E5
S113008005900D92A83AB107D9F722E0A8EAB1E0A9
S113009001C01D92A335B207E1F70E94DF020C9460
S11300A014060C9400001092A8010895EF92FF9298
S11300B00F931F93CF93DF93CDB7DEB7A0970FB6FF
S11300C0F894DEBF0FBECDBFFC012081222309F4CA
S11300D075C08C0147E050E060E071E00E941403B9
S11300E0892B39F5C80107960E94F6028C01029704
S11300F0CB97D0F4C8010E9426011F930F9388E088
S113010091E09F938F938E010F5F1F4F1F930F9367
S11301100E942A03C8010E9455020F900F900F906D
S11301200F900F900F904AC081E291E00E94550217
S113013045C049E050E060E471E0C8010E94140346
S1130140892BE1F5D8011996FD0101900020E9F70A
S11301503197EA1BFB0B389739F4F80183858A330E
S113016019F486858A3329F08AE491E00E945502C5
S113017025C0CD010E94F602F82E8983C8010C9691
S11301800E94F602E82E8A83C8010F960E94F602A6
S11301908B83F7E1FF1528F09BE39E1510F08C3359
S11301A028F088E691E00E94550208C0CE0101962D
S11301B00E94DC018BE791E00E945502A0960FB6E5
S11301C0F894DEBF0FBECDBFDF91CF911F910F9189
S11301D0FF90EF900895CF93DF931F92CDB7DEB7D2
S11301E01EC089818A3011F08D3069F4E091A80134
S11301F0F0E0E755FE4F108289EA91E00E94560034
S11302001092A8010CC09091A8019F3140F4E92FED
S1130210F0E0E755FE4F80839F5F9093A801CE01E5
S113022001960E9442028111DCCF0F90DF91CF91A1
S1130230089584E690E09093CC018093CB010E94D2
S113024010029093CA018093C90108959C01225021
S113025031092B33310578F49C01220F331F880FA9
S1130260991F880F991F880F991F820F931F9093CE
S1130270CC018093CB0108950E9410022091C90102
S11302803091CA01AC01421B530B2091CB01309138
S1130290CC014217530740F09093CA018093C901DF
S11302A08EE891E00E9455020895FC01E05CFF4F46
S11302B01082319610820895FC01E05CFF4F20818A
S11302C03196908181E0291380E008950F931F9364
S11302D0CF93DF93EC018B010E945C01811113C069
S11302E0FE01EF5BFF4F8081DE01A80FB11D8C91F1
S11302F0D8018C9380818F5F80838081803428F043
S1130300108281E003C080E001C081E0DF91CF91E1
S11303101F910F9108959C01FC01E05CFF4F9081B7
S11303209F5F903408F090E0F901EF5BFF4F20816C
S113033081E0921380E008951F93CF93DF93EC0143
S1130340162F0E948B01811111C0FE01E05CFF4F4A
S11303508081DE01A80FB11D1C9380818F5F808393
S11303608081803428F0108281E003C080E001C0E5
S113037081E0DF91CF911F9108951092B90088E434
S11303808093B80084E08093BC00089584EA80934D
S1130390BC008091BC008823E4F7089584E980932D
S11303A0BC0008958093BB0084E88093BC008091D6
S11303B0BC008823E4F70895CF93DF93EC010E94F7
S11303C0C60180ED0E94D20180E00E94D2018A81A0
S11303D00E94CC020E94D20189810E94CC020E9418
S11303E0D20188810E94CC020E94D2010E94CE01D7
S11303F0DF91CF91089510928000E1E8F0E088E069
S1130400808389E698E190938900809388008081B5
S113041084608083EFE6F0E08081826080830895C9
S1130420F8948091CD019091CE01789408951F9213
S11304300F920FB60F9211248F939F938091CD0149
S11304409091CE0101969093CE018093CD019F911E
S11304508F910F900FBE0F901F9018951092C500AA
S113046087E68093C40086E08093C20088E9809385
S1130470C1008FEC91E00E94550181E192E00E945D
S113048055010895BC018FEC91E00E946601089526
S1130490682F81E192E00E949C01882329F0E1EC1D
S11304A0F0E08081806280830895CF93DF93EC0134
S11304B003C00E944802219688818111FACFDF91FE
S11304C0CF9108951F920F920FB60F9211242F937C
S11304D03F934F935F936F937F938F939F93AF93C8
S11304E0BF93CF93EF93FF93C091C6006C2F8FEC13
S11304F091E00E949C018C2F0E944802FF91EF9191
S1130500CF91BF91AF919F918F917F916F915F91A7
S11305104F913F912F910F900FBE0F901F90189500
S11305201F920F920FB60F9211242F933F934F9364
S11305305F936F937F938F939F93AF93BF93EF9347
S1130540FF93CF93DF931F92CDB7DEB7BE016F5FEA
S11305507F4F81E192E00E946601882321F0898126
S11305608093C60005C0E1ECF0E080818F7D80833C
S11305700F90DF91CF91FF91EF91BF91AF919F9138
S11305808F917F916F915F914F913F912F910F9038
S11305900FBE0F901F9018959DEC899F912D1124EB
S11305A096959695969520E1929FA0011124990F16
S11305B0292F220F220F920F891B842B08950E944A
S11305C02E020E94BD010E94FB010E9419010E949B
S11305D0530078940E94EB000E943C0183B7816031
S11305E083BF889583B78E7F83BFF4CFFC018827B0
S11305F09927E89421912032E9F3293010F02E3024
S1130600C8F32B3241F02D3239F4689404C00E94AF
S11306102203820F911D219120532A30C0F31EF42E
S1130620909581959F4F0895FB01DC014150504006
S113063030F08D910190801919F40020B9F7881BCE
S1130640990B08957AE0979F902D879F802D910DA7
S113065011240895AEE0B0E0E0E3F3E00C94EB0580
S11306600D891E8986E08C831A8309838FEF9FE7A7
S11306709E838D83AE01475E5F4F6F89788DCE0177
S113068001960E944C03EF81F885E00FF11F108260
S11306902E96E4E00C940706ABE0B0E0E2E5F3E06C
S11306A00C94DD056C017B018A01FC011782168222
S11306B0838181FFCCC1CE0101963C01F601938177
S11306C0F70193FD859193FF81917F01882309F4BC
S11306D0BAC1853239F493FD859193FF81917F01ED
S11306E0853229F4B60190E00E944305E7CF912CAE
S11306F0212C312CFFE1F315D8F08B3279F038F44A
S1130700803279F08332A1F4232D20611DC08D3213
S113071061F0803369F4232D216016C0832D82603B
S1130720382EE32DE4603E2E2AC0F32DF8601DC060
S113073037FC2DC020ED280F2A3040F08E32B9F45A
S113074036FC81C1232D2064322E19C036FE06C02A
S11307508AE0989E200D1124922E11C0EAE02E9E6C
S1130760200D1124222EF32DF0623F2E08C08C366A
S113077021F4832D8068382E02C0883641F4F701B5
S113078093FD859193FF81917F018111B3CF982FC0
S11307909F7D9554933028F40C5F1F4F9FE39983FA
S11307A00DC0833631F0833771F0833509F059C0B9
S11307B021C0F801808189830E5F1F4F88248394B0
S11307C0912C530113C02801F2E04F0E511CF80183
S11307D0A080B18036FE03C0692D70E002C06FEFC7
S11307E07FEFC5010E9438054C018201F32DFF778C
S11307F03F2E16C0280122E0420E511CF801A080B1
S1130800B18036FE03C0692D70E002C06FEF7FEF48
S1130810C5010E942D054C01F32DF0683F2E820185
S113082033FC1BC0822D90E088169906B0F4B60103
S113083080E290E00E9443052A94F4CFF50137FC4E
S1130840859137FE81915F01B60190E00E944305D6
S113085021102A9421E0821A91088114910471F7DD
S1130860E8C0843611F0893641F5F80137FE07C037
S113087060817181828193810C5F1F4F08C0608108
S11308807181072E000C880B990B0E5F1F4FF32DFF
S1130890FF763F2E97FF09C09095809570956195DE
S11308A07F4F8F4F9F4FF0683F2E2AE030E0A30127
S11308B00E947F05882E861845C0853731F4232D84
S11308C02F7EB22E2AE030E025C0932D997FB92ED9
S11308D08F36C1F018F4883579F0B5C0803719F037
S11308E0883721F0B0C0E92FE061BE2EB4FE0DC000
S11308F0FB2DF460BF2E09C034FE0AC0292F2660E8
S1130900B22E06C028E030E005C020E130E002C08D
S113091020E132E0F801B7FE07C060817181828175
S113092093810C5F1F4F06C06081718180E090E06D
S11309300E5F1F4FA3010E947F05882E8618FB2D92
S1130940FF773F2E36FE0DC0232D2E7FA22E891455
S113095058F434FE0BC032FC09C0832D8E7EA82EC1
S113096005C0B82CA32C03C0B82C01C0B92CA4FE1C
S11309700FC0FE01E80DF11D8081803321F49A2D12
S1130980997EA92E09C0A2FE06C0B394B39404C0F4
S11309908A2D867809F0B394A3FC11C0A0FE06C08A
S11309A0B21488F4280C922C9B180EC0B21460F474
S11309B0B60180E290E00E944305B394F7CFB214ED
S11309C018F42B1802C0982C212CA4FE10C0B601D8
S11309D080E390E00E944305A2FE17C0A1FC03C07F
S11309E088E790E002C088E590E0B6010CC08A2D4B
S11309F0867859F0A1FE02C08BE201C080E2A7FC18
S1130A008DE2B60190E00E944305891438F4B601E2
S1130A1080E390E00E9443059A94F7CF8A94F3010F
S1130A20E80DF11D8081B60190E00E94430581101C
S1130A30F5CF222009F442CEB60180E290E00E9474
S1130A4043052A94F6CFF6018681978102C08FEF81
S1130A509FEF2B96E2E10C94F905FC01059061509F
S1130A6070400110D8F7809590958E0F9F1F0895C0
S1130A70FC016150704001900110D8F78095909569
S1130A808E0F9F1F08950F931F93CF93DF93FB0146
S1130A90238121FD03C08FEF9FEF2CC022FF16C0DE
S1130AA046815781248135814217530744F4A0813C
S1130AB0B1819D012F5F3F4F318320838C93268129
S1130AC037812F5F3F4F3783268314C08B01EC019E
S1130AD0FB010084F185E02D0995892BE1F6D8010D
S1130AE016968D919C911797019617969C938E93C9
S1130AF01697CE01DF91CF911F910F910895FA01BE
S1130B00AA27283051F1203181F1E8946F936E7F48
S1130B106E5F7F4F8F4F9F4FAF4FB1E03ED0B4E039
S1130B203CD0670F781F891F9A1FA11D680F791F7A
S1130B308A1F911DA11D6A0F711D811D911DA11D8B
S1130B4020D009F468943F912AE0269F112430199B
S1130B50305D3193DEF6CF010895462F4770405D36
S1130B604193B3E00FD0C9F7F6CF462F4F70405DE5
S1130B704A3318F0495D31FD4052419302D0A9F740
S1130B80EACFB4E0A6959795879577956795BA953A
S1130B90C9F700976105710508959B01AC010A2E00
S1130BA006945795479537952795BA95C9F7620FD7
S1130BB0731F841F951FA01D08952F923F924F927B
S1130BC05F926F927F928F929F92AF92BF92CF92D9
S1130BD0DF92EF92FF920F931F93CF93DF93CDB7E2
S1130BE0DEB7CA1BDB0B0FB6F894DEBF0FBECDBF5A
S1130BF009942A88398848885F846E847D848C842B
S1130C009B84AA84B984C884DF80EE80FD800C8133
S1130C101B81AA81B981CE0FD11D0FB6F894DEBF16
S10F0C200FBECDBFED010895F894FFCF86
S1130C2C5345545F544D3D005461736120646520F9
S1130C3C6D7565737472656F3A20256420730D0AA3
S1130C4C004552524F5220454E204C4120544153A2
S1130C5C41204445204D5545535452454F0D0A00EF
S1130C6C5345545F54494D453D004552524F522013
S1130C7C454E20454C20464F524D41544F2044453F
S1130C8C20484F52410D0A004552524F5220454EB6
S1130C9C204C4120484F52410D0A00486F7261208C
S1130CAC6D6F64696669636164612E0D0A00526537
S1130CBC706F72746520646520696E7665726E61FE
S10B0CCC6465726F0D0A00005B
S9030000FC
