S00B00005470332E7372656322
S11300000C9434000C9451000C9451000C94510045
S11300100C9451000C9451000C9451000C94510018
S11300200C9451000C9451000C9451000C946501F3
S11300300C9451000C9451000C9451000C945100F8
S11300400C9451000C9451000C94B0010C94DE01FA
S11300500C9451000C9451000C9451000C945100D8
S11300600C9451000C94510011241FBECFEFD8E022
S1130070DEBFCDBF11E0A0E0B1E0EEECF4E002C0E1
S113008005900D92AE32B107D9F721E0AEE2B1E0AE
S113009001C01D92A93DB207E1F70E941A020C9417
S11300A065020C94000010922E010895CF93DF9303
S11300B0EC0147E050E060E071E00E944F02892BC0
S11300C051F4CE0107960E9431020E94A90088E0F3
S11300D091E00E94A301DF91CF910895CF93DF9324
S11300E01F92CDB7DEB71EC089818A3011F08D30E2
S11300F069F4E0912E01F0E0E15DFE4F10828FE2A1
S113010091E00E94560010922E010CC090912E0195
S11301109F3140F4E92FF0E0E15DFE4F80839F5F63
S113012090932E01CE0101960E9490018111DCCFA3
S11301300F90DF91CF91089582E390E09093520164
S1130140809351010E945E019093500180934F016E
S113015008959C01225031092B33310578F49C0118
S1130160220F331F880F991F880F991F880F991F1B
S1130170820F931F909352018093510108950E941E
S11301805E0120914F0130915001AC01421B530B91
S113019020915101309152014217530740F090933E
S11301A0500180934F0185E191E00E94A3010895DD
S11301B0FC01E05CFF4F1082319610820895FC012F
S11301C0E05CFF4F20813196908181E0291380E02B
S11301D008950F931F93CF93DF93EC018B010E943B
S11301E0DF00811113C0FE01EF5BFF4F8081DE0150
S11301F0A80FB11D8C91D8018C9380818F5F80836F
S11302008081803428F0108281E003C080E001C046
S113021081E0DF91CF911F910F9108959C01FC0122
S1130220E05CFF4F90819F5F903408F090E0F9010B
S1130230EF5BFF4F208181E0921380E008951F93CC
S1130240CF93DF93EC01162F0E940E01811111C090
S1130250FE01E05CFF4F8081DE01A80FB11D1C93FD
S113026080818F5F80838081803428F0108281E0D8
S113027003C080E001C081E0DF91CF911F91089518
S11302801092B90088E48093B80084E08093BC00A5
S1130290089510928000E1E8F0E088E0808389E628
S11302A098E19093890080938800808184608083A2
S11302B0EFE6F0E08081826080830895F894809175
S11302C0530190915401789408951F920F920FB6A0
S11302D00F9211248F939F93809153019091540115
S11302E0019690935401809353019F918F910F90A5
S11302F00FBE0F901F9018951092C50087E680934B
S1130300C40086E08093C20088E98093C10085E53B
S113031091E00E94D80087E991E00E94D8000895F6
S1130320BC0185E591E00E94E9000895682F87E902
S113033091E00E941F01882329F0E1ECF0E0808124
S1130340806280830895CF93DF93EC0103C00E9401
S11303509601219688818111FACFDF91CF9108957A
S11303601F920F920FB60F9211242F933F934F9326
S11303705F936F937F938F939F93AF93BF93CF9329
S1130380EF93FF93C091C6006C2F85E591E00E9426
S11303901F018C2F0E949601FF91EF91CF91BF9185
S11303A0AF919F918F917F916F915F914F913F9109
S11303B02F910F900FBE0F901F9018951F920F92C0
S11303C00FB60F9211242F933F934F935F936F9324
S11303D07F938F939F93AF93BF93EF93FF93CF93A9
S11303E0DF931F92CDB7DEB7BE016F5F7F4F87E902
S11303F091E00E94E900882321F089818093C6005E
S113040005C0E1ECF0E080818F7D80830F90DF9167
S1130410CF91FF91EF91BF91AF919F918F917F9178
S11304206F915F914F913F912F910F900FBE0F905D
S11304301F9018950E947C010E9440010E9449016E
S11304400E949C000E94530078940E946E000E94B7
S1130450BF0083B7816083BF889583B78E7F83BFD6
S1130460F4CFFC0188279927E89421912032E9F3FD
S1130470293010F02E30C8F32B3241F02D3239F4EC
S1130480689404C00E945D02820F911D2191205343
S11304902A30C0F31EF4909581959F4F0895FB0177
S11304A0DC014150504030F08D910190801919F4D5
S11304B00020B9F7881B990B08957AE0979F902D37
S11104C0879F802D910D11240895F894FFCF8D
S11304CE5345545F544D3D004F4B0D0A0045525257
S11304DE4F520D0A005265706F7274652064652068
S11104EE696E7665726E616465726F0D0A0048
S9030000FC
